{
  "_format": "hh-sol-artifact-1",
  "contractName": "Router",
  "sourceName": "contracts/router/Router.sol",
  "abi": [
    {
      "inputs": [
        {
          "internalType": "address",
          "name": "_factory",
          "type": "address"
        },
        {
          "internalType": "address",
          "name": "_WNative",
          "type": "address"
        }
      ],
      "stateMutability": "nonpayable",
      "type": "constructor"
    },
    {
      "inputs": [],
      "name": "WNative",
      "outputs": [
        {
          "internalType": "address",
          "name": "",
          "type": "address"
        }
      ],
      "stateMutability": "view",
      "type": "function"
    },
    {
      "inputs": [
        {
          "internalType": "address",
          "name": "tokenA",
          "type": "address"
        },
        {
          "internalType": "address",
          "name": "tokenB",
          "type": "address"
        },
        {
          "internalType": "uint32",
          "name": "fee",
          "type": "uint32"
        },
        {
          "internalType": "uint256",
          "name": "amountADesired",
          "type": "uint256"
        },
        {
          "internalType": "uint256",
          "name": "amountBDesired",
          "type": "uint256"
        },
        {
          "internalType": "uint256",
          "name": "amountAMin",
          "type": "uint256"
        },
        {
          "internalType": "uint256",
          "name": "amountBMin",
          "type": "uint256"
        },
        {
          "internalType": "address",
          "name": "to",
          "type": "address"
        },
        {
          "internalType": "uint256",
          "name": "deadline",
          "type": "uint256"
        }
      ],
      "name": "addLiquidity",
      "outputs": [
        {
          "internalType": "uint256",
          "name": "amountA",
          "type": "uint256"
        },
        {
          "internalType": "uint256",
          "name": "amountB",
          "type": "uint256"
        },
        {
          "internalType": "uint256",
          "name": "liquidity",
          "type": "uint256"
        }
      ],
      "stateMutability": "nonpayable",
      "type": "function"
    },
    {
      "inputs": [
        {
          "internalType": "address",
          "name": "token",
          "type": "address"
        },
        {
          "internalType": "uint32",
          "name": "fee",
          "type": "uint32"
        },
        {
          "internalType": "uint256",
          "name": "amountTokenDesired",
          "type": "uint256"
        },
        {
          "internalType": "uint256",
          "name": "amountTokenMin",
          "type": "uint256"
        },
        {
          "internalType": "uint256",
          "name": "amountNativeMin",
          "type": "uint256"
        },
        {
          "internalType": "address",
          "name": "to",
          "type": "address"
        },
        {
          "internalType": "uint256",
          "name": "deadline",
          "type": "uint256"
        }
      ],
      "name": "addLiquidityNative",
      "outputs": [
        {
          "internalType": "uint256",
          "name": "amountToken",
          "type": "uint256"
        },
        {
          "internalType": "uint256",
          "name": "amountNative",
          "type": "uint256"
        },
        {
          "internalType": "uint256",
          "name": "liquidity",
          "type": "uint256"
        }
      ],
      "stateMutability": "payable",
      "type": "function"
    },
    {
      "inputs": [],
      "name": "factory",
      "outputs": [
        {
          "internalType": "address",
          "name": "",
          "type": "address"
        }
      ],
      "stateMutability": "view",
      "type": "function"
    },
    {
      "inputs": [
        {
          "internalType": "uint256",
          "name": "amountOut",
          "type": "uint256"
        },
        {
          "internalType": "uint256",
          "name": "reserveIn",
          "type": "uint256"
        },
        {
          "internalType": "uint256",
          "name": "reserveOut",
          "type": "uint256"
        },
        {
          "internalType": "uint32",
          "name": "fee",
          "type": "uint32"
        }
      ],
      "name": "getAmountIn",
      "outputs": [
        {
          "internalType": "uint256",
          "name": "amountIn",
          "type": "uint256"
        }
      ],
      "stateMutability": "pure",
      "type": "function"
    },
    {
      "inputs": [
        {
          "internalType": "uint256",
          "name": "amountIn",
          "type": "uint256"
        },
        {
          "internalType": "uint256",
          "name": "reserveIn",
          "type": "uint256"
        },
        {
          "internalType": "uint256",
          "name": "reserveOut",
          "type": "uint256"
        },
        {
          "internalType": "uint32",
          "name": "fee",
          "type": "uint32"
        }
      ],
      "name": "getAmountOut",
      "outputs": [
        {
          "internalType": "uint256",
          "name": "amountOut",
          "type": "uint256"
        }
      ],
      "stateMutability": "pure",
      "type": "function"
    },
    {
      "inputs": [
        {
          "internalType": "uint256",
          "name": "amountOut",
          "type": "uint256"
        },
        {
          "internalType": "address[]",
          "name": "path",
          "type": "address[]"
        },
        {
          "internalType": "uint32[]",
          "name": "feePath",
          "type": "uint32[]"
        }
      ],
      "name": "getAmountsIn",
      "outputs": [
        {
          "internalType": "uint256[]",
          "name": "amounts",
          "type": "uint256[]"
        }
      ],
      "stateMutability": "view",
      "type": "function"
    },
    {
      "inputs": [
        {
          "internalType": "uint256",
          "name": "amountIn",
          "type": "uint256"
        },
        {
          "internalType": "address[]",
          "name": "path",
          "type": "address[]"
        },
        {
          "internalType": "uint32[]",
          "name": "feePath",
          "type": "uint32[]"
        }
      ],
      "name": "getAmountsOut",
      "outputs": [
        {
          "internalType": "uint256[]",
          "name": "amounts",
          "type": "uint256[]"
        }
      ],
      "stateMutability": "view",
      "type": "function"
    },
    {
      "inputs": [
        {
          "internalType": "address",
          "name": "tokenA",
          "type": "address"
        },
        {
          "internalType": "address",
          "name": "tokenB",
          "type": "address"
        },
        {
          "internalType": "uint32",
          "name": "poolFee",
          "type": "uint32"
        }
      ],
      "name": "pairAddress",
      "outputs": [
        {
          "internalType": "address",
          "name": "",
          "type": "address"
        }
      ],
      "stateMutability": "view",
      "type": "function"
    },
    {
      "inputs": [
        {
          "internalType": "uint256",
          "name": "amountA",
          "type": "uint256"
        },
        {
          "internalType": "uint256",
          "name": "reserveA",
          "type": "uint256"
        },
        {
          "internalType": "uint256",
          "name": "reserveB",
          "type": "uint256"
        }
      ],
      "name": "quote",
      "outputs": [
        {
          "internalType": "uint256",
          "name": "amountB",
          "type": "uint256"
        }
      ],
      "stateMutability": "pure",
      "type": "function"
    },
    {
      "inputs": [
        {
          "internalType": "uint256",
          "name": "amountA",
          "type": "uint256"
        },
        {
          "internalType": "address",
          "name": "tokenA",
          "type": "address"
        },
        {
          "internalType": "address",
          "name": "tokenB",
          "type": "address"
        },
        {
          "internalType": "uint32",
          "name": "fee",
          "type": "uint32"
        }
      ],
      "name": "quoteByTokens",
      "outputs": [
        {
          "internalType": "uint256",
          "name": "amountB",
          "type": "uint256"
        }
      ],
      "stateMutability": "view",
      "type": "function"
    },
    {
      "inputs": [
        {
          "internalType": "address",
          "name": "tokenA",
          "type": "address"
        },
        {
          "internalType": "address",
          "name": "tokenB",
          "type": "address"
        },
        {
          "internalType": "uint32",
          "name": "fee",
          "type": "uint32"
        },
        {
          "internalType": "uint256",
          "name": "liquidity",
          "type": "uint256"
        },
        {
          "internalType": "uint256",
          "name": "amountAMin",
          "type": "uint256"
        },
        {
          "internalType": "uint256",
          "name": "amountBMin",
          "type": "uint256"
        },
        {
          "internalType": "address",
          "name": "to",
          "type": "address"
        },
        {
          "internalType": "uint256",
          "name": "deadline",
          "type": "uint256"
        }
      ],
      "name": "removeLiquidity",
      "outputs": [
        {
          "internalType": "uint256",
          "name": "amountA",
          "type": "uint256"
        },
        {
          "internalType": "uint256",
          "name": "amountB",
          "type": "uint256"
        }
      ],
      "stateMutability": "nonpayable",
      "type": "function"
    },
    {
      "inputs": [
        {
          "internalType": "address",
          "name": "token",
          "type": "address"
        },
        {
          "internalType": "uint32",
          "name": "fee",
          "type": "uint32"
        },
        {
          "internalType": "uint256",
          "name": "liquidity",
          "type": "uint256"
        },
        {
          "internalType": "uint256",
          "name": "amountTokenMin",
          "type": "uint256"
        },
        {
          "internalType": "uint256",
          "name": "amountNativeMin",
          "type": "uint256"
        },
        {
          "internalType": "address",
          "name": "to",
          "type": "address"
        },
        {
          "internalType": "uint256",
          "name": "deadline",
          "type": "uint256"
        }
      ],
      "name": "removeLiquidityNative",
      "outputs": [
        {
          "internalType": "uint256",
          "name": "amountToken",
          "type": "uint256"
        },
        {
          "internalType": "uint256",
          "name": "amountNative",
          "type": "uint256"
        }
      ],
      "stateMutability": "nonpayable",
      "type": "function"
    },
    {
      "inputs": [
        {
          "internalType": "uint256",
          "name": "amountOutMin",
          "type": "uint256"
        },
        {
          "internalType": "address[]",
          "name": "path",
          "type": "address[]"
        },
        {
          "internalType": "uint32[]",
          "name": "feePath",
          "type": "uint32[]"
        },
        {
          "internalType": "address",
          "name": "to",
          "type": "address"
        },
        {
          "internalType": "uint256",
          "name": "deadline",
          "type": "uint256"
        }
      ],
      "name": "swapExactNativeForTokens",
      "outputs": [
        {
          "internalType": "uint256[]",
          "name": "amounts",
          "type": "uint256[]"
        }
      ],
      "stateMutability": "payable",
      "type": "function"
    },
    {
      "inputs": [
        {
          "internalType": "uint256",
          "name": "amountIn",
          "type": "uint256"
        },
        {
          "internalType": "uint256",
          "name": "amountOutMin",
          "type": "uint256"
        },
        {
          "internalType": "address[]",
          "name": "path",
          "type": "address[]"
        },
        {
          "internalType": "uint32[]",
          "name": "feePath",
          "type": "uint32[]"
        },
        {
          "internalType": "address",
          "name": "to",
          "type": "address"
        },
        {
          "internalType": "uint256",
          "name": "deadline",
          "type": "uint256"
        }
      ],
      "name": "swapExactTokensForTokens",
      "outputs": [
        {
          "internalType": "uint256[]",
          "name": "amounts",
          "type": "uint256[]"
        }
      ],
      "stateMutability": "nonpayable",
      "type": "function"
    },
    {
      "inputs": [
        {
          "internalType": "uint256",
          "name": "amountOut",
          "type": "uint256"
        },
        {
          "internalType": "uint256",
          "name": "amountInMax",
          "type": "uint256"
        },
        {
          "internalType": "address[]",
          "name": "path",
          "type": "address[]"
        },
        {
          "internalType": "uint32[]",
          "name": "feePath",
          "type": "uint32[]"
        },
        {
          "internalType": "address",
          "name": "to",
          "type": "address"
        },
        {
          "internalType": "uint256",
          "name": "deadline",
          "type": "uint256"
        }
      ],
      "name": "swapTokensForExactNative",
      "outputs": [
        {
          "internalType": "uint256[]",
          "name": "amounts",
          "type": "uint256[]"
        }
      ],
      "stateMutability": "nonpayable",
      "type": "function"
    },
    {
      "inputs": [
        {
          "internalType": "uint256",
          "name": "amountOut",
          "type": "uint256"
        },
        {
          "internalType": "uint256",
          "name": "amountInMax",
          "type": "uint256"
        },
        {
          "internalType": "address[]",
          "name": "path",
          "type": "address[]"
        },
        {
          "internalType": "uint32[]",
          "name": "feePath",
          "type": "uint32[]"
        },
        {
          "internalType": "address",
          "name": "to",
          "type": "address"
        },
        {
          "internalType": "uint256",
          "name": "deadline",
          "type": "uint256"
        }
      ],
      "name": "swapTokensForExactTokens",
      "outputs": [
        {
          "internalType": "uint256[]",
          "name": "amounts",
          "type": "uint256[]"
        }
      ],
      "stateMutability": "nonpayable",
      "type": "function"
    },
    {
      "stateMutability": "payable",
      "type": "receive"
    }
  ],
  "bytecode": "0x60c06040523480156200001157600080fd5b5060405162005d9538038062005d95833981810160405281019062000037919062000111565b8173ffffffffffffffffffffffffffffffffffffffff1660808173ffffffffffffffffffffffffffffffffffffffff16815250508073ffffffffffffffffffffffffffffffffffffffff1660a08173ffffffffffffffffffffffffffffffffffffffff1681525050505062000158565b600080fd5b600073ffffffffffffffffffffffffffffffffffffffff82169050919050565b6000620000d982620000ac565b9050919050565b620000eb81620000cc565b8114620000f757600080fd5b50565b6000815190506200010b81620000e0565b92915050565b600080604083850312156200012b576200012a620000a7565b5b60006200013b85828601620000fa565b92505060206200014e85828601620000fa565b9150509250929050565b60805160a051615b2262000273600039600081816101090152818161058e015281816105ff0152818161069e0152818161071f01528181610c0301528181610d9301528181610e2f01528181611b5f01528181611efa01528181612063015281816120a201526121680152600081816105dd015281816108f301528181610a3601528181610cbc01528181610e85015281816110e3015281816112f40152818161139b015281816114ca015281816116c4015281816116fc015281816117e5015281816118740152818161199201528181611c3d01528181611d800152818161214401528181612217015281816123c8015281816126850152818161274e0152818161280501528181612d910152612e8e0152615b226000f3fe6080604052600436106101025760003560e01c806372c6111911610095578063c1aab88611610064578063c1aab8861461042e578063c45a01551461046c578063f3ec43c714610497578063f5ad1d0a146104c2578063fe9d7b291461050157610165565b806372c611191461033a57806381382402146103775780639cd07615146103b4578063ad615dec146103f157610165565b806345bc4b56116100d157806345bc4b5614610246578063510604641461028357806353e6beaa146102c05780636d909353146102fd57610165565b806305476e171461016a578063119b04d61461019c5780631d6b0b9a146101d957806322a4589a1461020957610165565b36610165577f000000000000000000000000000000000000000000000000000000000000000073ffffffffffffffffffffffffffffffffffffffff163373ffffffffffffffffffffffffffffffffffffffff161461016357610162613a09565b5b005b600080fd5b610184600480360381019061017f9190613b1c565b61053f565b60405161019393929190613bcd565b60405180910390f35b3480156101a857600080fd5b506101c360048036038101906101be9190613cbf565b610891565b6040516101d09190613e4c565b60405180910390f35b6101f360048036038101906101ee9190613e6e565b610bbb565b6040516102009190613e4c565b60405180910390f35b34801561021557600080fd5b50610230600480360381019061022b9190614079565b611080565b60405161023d9190613e4c565b60405180910390f35b34801561025257600080fd5b5061026d60048036038101906102689190614109565b611397565b60405161027a919061416b565b60405180910390f35b34801561028f57600080fd5b506102aa60048036038101906102a59190614186565b61144f565b6040516102b791906141ed565b60405180910390f35b3480156102cc57600080fd5b506102e760048036038101906102e29190614079565b611467565b6040516102f49190613e4c565b60405180910390f35b34801561030957600080fd5b50610324600480360381019061031f9190614208565b6116f7565b60405161033191906141ed565b60405180910390f35b34801561034657600080fd5b50610361600480360381019061035c9190613cbf565b611829565b60405161036e9190613e4c565b60405180910390f35b34801561038357600080fd5b5061039e60048036038101906103999190613cbf565b611b17565b6040516103ab9190613e4c565b60405180910390f35b3480156103c057600080fd5b506103db60048036038101906103d69190614186565b611fe8565b6040516103e891906141ed565b60405180910390f35b3480156103fd57600080fd5b506104186004803603810190610413919061426f565b612000565b60405161042591906141ed565b60405180910390f35b34801561043a57600080fd5b5061045560048036038101906104509190613b1c565b612016565b6040516104639291906142c2565b60405180910390f35b34801561047857600080fd5b50610481612142565b60405161048e919061416b565b60405180910390f35b3480156104a357600080fd5b506104ac612166565b6040516104b9919061416b565b60405180910390f35b3480156104ce57600080fd5b506104e960048036038101906104e491906142eb565b61218a565b6040516104f893929190613bcd565b60405180910390f35b34801561050d57600080fd5b50610528600480360381019061052391906143b5565b612363565b6040516105369291906142c2565b60405180910390f35b60008060008342811015610588576040517f08c379a000000000000000000000000000000000000000000000000000000000815260040161057f906144c8565b60405180910390fd5b6105b78b7f00000000000000000000000000000000000000000000000000000000000000008c8c348d8d612668565b8094508195505050600073__$29cd54def7ac870639746274e39943fa8d$__633d220cdf7f00000000000000000000000000000000000000000000000000000000000000008e7f00000000000000000000000000000000000000000000000000000000000000008f6040518563ffffffff1660e01b815260040161063e9493929190614506565b60206040518083038186803b15801561065657600080fd5b505af415801561066a573d6000803e3d6000fd5b505050506040513d601f19601f8201168201806040525081019061068e9190614560565b905061069c8c338388612a3f565b7f000000000000000000000000000000000000000000000000000000000000000073ffffffffffffffffffffffffffffffffffffffff1663d0e30db0856040518263ffffffff1660e01b81526004016000604051808303818588803b15801561070457600080fd5b505af1158015610718573d6000803e3d6000fd5b50505050507f000000000000000000000000000000000000000000000000000000000000000073ffffffffffffffffffffffffffffffffffffffff1663a9059cbb82866040518363ffffffff1660e01b815260040161077892919061458d565b602060405180830381600087803b15801561079257600080fd5b505af11580156107a6573d6000803e3d6000fd5b505050506040513d601f19601f820116820180604052508101906107ca91906145ee565b6107d7576107d6613a09565b5b8073ffffffffffffffffffffffffffffffffffffffff16636a627842886040518263ffffffff1660e01b8152600401610810919061416b565b602060405180830381600087803b15801561082a57600080fd5b505af115801561083e573d6000803e3d6000fd5b505050506040513d601f19601f820116820180604052508101906108629190614630565b9250833411156108825761088133853461087c919061468c565b612b78565b5b50509750975097945050505050565b606081428110156108d7576040517f08c379a00000000000000000000000000000000000000000000000000000000081526004016108ce906144c8565b60405180910390fd5b73__$29cd54def7ac870639746274e39943fa8d$__6371847da87f00000000000000000000000000000000000000000000000000000000000000008c8b8b8b8b6040518763ffffffff1660e01b815260040161093896959493929190614855565b60006040518083038186803b15801561095057600080fd5b505af4158015610964573d6000803e3d6000fd5b505050506040513d6000823e3d601f19601f8201168201806040525081019061098d919061496f565b915088826000815181106109a4576109a36149b8565b5b602002602001015111156109ed576040517f08c379a00000000000000000000000000000000000000000000000000000000081526004016109e490614a33565b60405180910390fd5b610b6088886000818110610a0457610a036149b8565b5b9050602002016020810190610a199190614a53565b3373__$29cd54def7ac870639746274e39943fa8d$__633d220cdf7f00000000000000000000000000000000000000000000000000000000000000008d8d6000818110610a6957610a686149b8565b5b9050602002016020810190610a7e9190614a53565b8e8e6001818110610a9257610a916149b8565b5b9050602002016020810190610aa79190614a53565b8d8d6000818110610abb57610aba6149b8565b5b9050602002016020810190610ad09190614a80565b6040518563ffffffff1660e01b8152600401610aef9493929190614506565b60206040518083038186803b158015610b0757600080fd5b505af4158015610b1b573d6000803e3d6000fd5b505050506040513d601f19601f82011682018060405250810190610b3f9190614560565b85600081518110610b5357610b526149b8565b5b6020026020010151612a3f565b610bae82898980806020026020016040519081016040528093929190818152602001838360200280828437600081840152601f19601f82011690508083019250505050505050888888612c78565b5098975050505050505050565b60608142811015610c01576040517f08c379a0000000000000000000000000000000000000000000000000000000008152600401610bf8906144c8565b60405180910390fd5b7f000000000000000000000000000000000000000000000000000000000000000073ffffffffffffffffffffffffffffffffffffffff1688886000818110610c4c57610c4b6149b8565b5b9050602002016020810190610c619190614a53565b73ffffffffffffffffffffffffffffffffffffffff1614610cb7576040517f08c379a0000000000000000000000000000000000000000000000000000000008152600401610cae90614af9565b60405180910390fd5b610d257f0000000000000000000000000000000000000000000000000000000000000000348a8a80806020026020016040519081016040528093929190818152602001838360200280828437600081840152601f19601f820116905080830192505050505050508989613025565b9150888260018451610d37919061468c565b81518110610d4857610d476149b8565b5b60200260200101511015610d91576040517f08c379a0000000000000000000000000000000000000000000000000000000008152600401610d8890614b8b565b60405180910390fd5b7f000000000000000000000000000000000000000000000000000000000000000073ffffffffffffffffffffffffffffffffffffffff1663d0e30db083600081518110610de157610de06149b8565b5b60200260200101516040518263ffffffff1660e01b81526004016000604051808303818588803b158015610e1457600080fd5b505af1158015610e28573d6000803e3d6000fd5b50505050507f000000000000000000000000000000000000000000000000000000000000000073ffffffffffffffffffffffffffffffffffffffff1663a9059cbb73__$29cd54def7ac870639746274e39943fa8d$__633d220cdf7f00000000000000000000000000000000000000000000000000000000000000008c8c6000818110610eb857610eb76149b8565b5b9050602002016020810190610ecd9190614a53565b8d8d6001818110610ee157610ee06149b8565b5b9050602002016020810190610ef69190614a53565b8c8c6000818110610f0a57610f096149b8565b5b9050602002016020810190610f1f9190614a80565b6040518563ffffffff1660e01b8152600401610f3e9493929190614506565b60206040518083038186803b158015610f5657600080fd5b505af4158015610f6a573d6000803e3d6000fd5b505050506040513d601f19601f82011682018060405250810190610f8e9190614560565b84600081518110610fa257610fa16149b8565b5b60200260200101516040518363ffffffff1660e01b8152600401610fc792919061458d565b602060405180830381600087803b158015610fe157600080fd5b505af1158015610ff5573d6000803e3d6000fd5b505050506040513d601f19601f8201168201806040525081019061101991906145ee565b61102657611025613a09565b5b61107482898980806020026020016040519081016040528093929190818152602001838360200280828437600081840152601f19601f82011690508083019250505050505050888888612c78565b50979650505050505050565b60606002845110156110c7576040517f08c379a00000000000000000000000000000000000000000000000000000000081526004016110be90614bf7565b60405180910390fd5b60005b600185516110d8919061468c565b8110156112d75760007f000000000000000000000000000000000000000000000000000000000000000073ffffffffffffffffffffffffffffffffffffffff166335a54e068784815181106111305761112f6149b8565b5b6020026020010151886001866111469190614c17565b81518110611157576111566149b8565b5b6020026020010151888887818110611172576111716149b8565b5b90506020020160208101906111879190614a80565b6040518463ffffffff1660e01b81526004016111a593929190614c7c565b60206040518083038186803b1580156111bd57600080fd5b505afa1580156111d1573d6000803e3d6000fd5b505050506040513d601f19601f820116820180604052508101906111f59190614560565b9050600073ffffffffffffffffffffffffffffffffffffffff168173ffffffffffffffffffffffffffffffffffffffff1614156112c357600267ffffffffffffffff81111561124757611246613f3b565b5b6040519080825280602002602001820160405280156112755781602001602082028036833780820191505090505b50925060008360008151811061128e5761128d6149b8565b5b6020026020010181815250506000836001815181106112b0576112af6149b8565b5b602002602001018181525050505061138f565b5080806112cf90614cb3565b9150506110ca565b5073__$29cd54def7ac870639746274e39943fa8d$__6371847da87f0000000000000000000000000000000000000000000000000000000000000000878787876040518663ffffffff1660e01b8152600401611337959493929190614d82565b60006040518083038186803b15801561134f57600080fd5b505af4158015611363573d6000803e3d6000fd5b505050506040513d6000823e3d601f19601f8201168201806040525081019061138c919061496f565b90505b949350505050565b60007f000000000000000000000000000000000000000000000000000000000000000073ffffffffffffffffffffffffffffffffffffffff166335a54e068585856040518463ffffffff1660e01b81526004016113f693929190614c7c565b60206040518083038186803b15801561140e57600080fd5b505afa158015611422573d6000803e3d6000fd5b505050506040513d601f19601f820116820180604052508101906114469190614560565b90509392505050565b600061145d85858585613202565b9050949350505050565b60606002845110156114ae576040517f08c379a00000000000000000000000000000000000000000000000000000000081526004016114a590614bf7565b60405180910390fd5b60005b600185516114bf919061468c565b8110156116be5760007f000000000000000000000000000000000000000000000000000000000000000073ffffffffffffffffffffffffffffffffffffffff166335a54e06878481518110611517576115166149b8565b5b60200260200101518860018661152d9190614c17565b8151811061153e5761153d6149b8565b5b6020026020010151888887818110611559576115586149b8565b5b905060200201602081019061156e9190614a80565b6040518463ffffffff1660e01b815260040161158c93929190614c7c565b60206040518083038186803b1580156115a457600080fd5b505afa1580156115b8573d6000803e3d6000fd5b505050506040513d601f19601f820116820180604052508101906115dc9190614560565b9050600073ffffffffffffffffffffffffffffffffffffffff168173ffffffffffffffffffffffffffffffffffffffff1614156116aa57600267ffffffffffffffff81111561162e5761162d613f3b565b5b60405190808252806020026020018201604052801561165c5781602001602082028036833780820191505090505b509250600083600081518110611675576116746149b8565b5b602002602001018181525050600083600181518110611697576116966149b8565b5b60200260200101818152505050506116ef565b5080806116b690614cb3565b9150506114b1565b506116ec7f000000000000000000000000000000000000000000000000000000000000000086868686613025565b90505b949350505050565b6000807f000000000000000000000000000000000000000000000000000000000000000073ffffffffffffffffffffffffffffffffffffffff166335a54e068686866040518463ffffffff1660e01b815260040161175793929190614c7c565b60206040518083038186803b15801561176f57600080fd5b505afa158015611783573d6000803e3d6000fd5b505050506040513d601f19601f820116820180604052508101906117a79190614560565b9050600073ffffffffffffffffffffffffffffffffffffffff168173ffffffffffffffffffffffffffffffffffffffff16146118205760008061180c7f000000000000000000000000000000000000000000000000000000000000000088888861331c565b9150915061181b888383613430565b935050505b50949350505050565b6060814281101561186f576040517f08c379a0000000000000000000000000000000000000000000000000000000008152600401611866906144c8565b60405180910390fd5b6118dd7f00000000000000000000000000000000000000000000000000000000000000008b8a8a80806020026020016040519081016040528093929190818152602001838360200280828437600081840152601f19601f820116905080830192505050505050508989613025565b91508882600184516118ef919061468c565b81518110611900576118ff6149b8565b5b60200260200101511015611949576040517f08c379a000000000000000000000000000000000000000000000000000000000815260040161194090614b8b565b60405180910390fd5b611abc888860008181106119605761195f6149b8565b5b90506020020160208101906119759190614a53565b3373__$29cd54def7ac870639746274e39943fa8d$__633d220cdf7f00000000000000000000000000000000000000000000000000000000000000008d8d60008181106119c5576119c46149b8565b5b90506020020160208101906119da9190614a53565b8e8e60018181106119ee576119ed6149b8565b5b9050602002016020810190611a039190614a53565b8d8d6000818110611a1757611a166149b8565b5b9050602002016020810190611a2c9190614a80565b6040518563ffffffff1660e01b8152600401611a4b9493929190614506565b60206040518083038186803b158015611a6357600080fd5b505af4158015611a77573d6000803e3d6000fd5b505050506040513d601f19601f82011682018060405250810190611a9b9190614560565b85600081518110611aaf57611aae6149b8565b5b6020026020010151612a3f565b611b0a82898980806020026020016040519081016040528093929190818152602001838360200280828437600081840152601f19601f82011690508083019250505050505050888888612c78565b5098975050505050505050565b60608142811015611b5d576040517f08c379a0000000000000000000000000000000000000000000000000000000008152600401611b54906144c8565b60405180910390fd5b7f000000000000000000000000000000000000000000000000000000000000000073ffffffffffffffffffffffffffffffffffffffff16888860018b8b9050611ba6919061468c565b818110611bb657611bb56149b8565b5b9050602002016020810190611bcb9190614a53565b73ffffffffffffffffffffffffffffffffffffffff1614611c21576040517f08c379a0000000000000000000000000000000000000000000000000000000008152600401611c1890614af9565b60405180910390fd5b73__$29cd54def7ac870639746274e39943fa8d$__6371847da87f00000000000000000000000000000000000000000000000000000000000000008c8b8b8b8b6040518763ffffffff1660e01b8152600401611c8296959493929190614855565b60006040518083038186803b158015611c9a57600080fd5b505af4158015611cae573d6000803e3d6000fd5b505050506040513d6000823e3d601f19601f82011682018060405250810190611cd7919061496f565b91508882600081518110611cee57611ced6149b8565b5b60200260200101511115611d37576040517f08c379a0000000000000000000000000000000000000000000000000000000008152600401611d2e90614a33565b60405180910390fd5b611eaa88886000818110611d4e57611d4d6149b8565b5b9050602002016020810190611d639190614a53565b3373__$29cd54def7ac870639746274e39943fa8d$__633d220cdf7f00000000000000000000000000000000000000000000000000000000000000008d8d6000818110611db357611db26149b8565b5b9050602002016020810190611dc89190614a53565b8e8e6001818110611ddc57611ddb6149b8565b5b9050602002016020810190611df19190614a53565b8d8d6000818110611e0557611e046149b8565b5b9050602002016020810190611e1a9190614a80565b6040518563ffffffff1660e01b8152600401611e399493929190614506565b60206040518083038186803b158015611e5157600080fd5b505af4158015611e65573d6000803e3d6000fd5b505050506040513d601f19601f82011682018060405250810190611e899190614560565b85600081518110611e9d57611e9c6149b8565b5b6020026020010151612a3f565b611ef882898980806020026020016040519081016040528093929190818152602001838360200280828437600081840152601f19601f82011690508083019250505050505050888830612c78565b7f000000000000000000000000000000000000000000000000000000000000000073ffffffffffffffffffffffffffffffffffffffff16632e1a7d4d8360018551611f43919061468c565b81518110611f5457611f536149b8565b5b60200260200101516040518263ffffffff1660e01b8152600401611f7891906141ed565b600060405180830381600087803b158015611f9257600080fd5b505af1158015611fa6573d6000803e3d6000fd5b50505050611fdb848360018551611fbd919061468c565b81518110611fce57611fcd6149b8565b5b6020026020010151612b78565b5098975050505050505050565b6000611ff6858585856134ea565b9050949350505050565b600061200d848484613430565b90509392505050565b600080824281101561205d576040517f08c379a0000000000000000000000000000000000000000000000000000000008152600401612054906144c8565b60405180910390fd5b61208d8a7f00000000000000000000000000000000000000000000000000000000000000008b8b8b8b308b612363565b80935081945050506120a08a8685613611565b7f000000000000000000000000000000000000000000000000000000000000000073ffffffffffffffffffffffffffffffffffffffff16632e1a7d4d836040518263ffffffff1660e01b81526004016120f991906141ed565b600060405180830381600087803b15801561211357600080fd5b505af1158015612127573d6000803e3d6000fd5b505050506121358583612b78565b5097509795505050505050565b7f000000000000000000000000000000000000000000000000000000000000000081565b7f000000000000000000000000000000000000000000000000000000000000000081565b600080600083428110156121d3576040517f08c379a00000000000000000000000000000000000000000000000000000000081526004016121ca906144c8565b60405180910390fd5b6121e28d8d8d8d8d8d8d612668565b809450819550505060008d905060008d905060008d9050600073__$29cd54def7ac870639746274e39943fa8d$__633d220cdf7f00000000000000000000000000000000000000000000000000000000000000008686866040518563ffffffff1660e01b81526004016122589493929190614506565b60206040518083038186803b15801561227057600080fd5b505af4158015612284573d6000803e3d6000fd5b505050506040513d601f19601f820116820180604052508101906122a89190614560565b90506122b68433838b612a3f565b6122c28333838a612a3f565b8073ffffffffffffffffffffffffffffffffffffffff16636a6278428b6040518263ffffffff1660e01b81526004016122fb919061416b565b602060405180830381600087803b15801561231557600080fd5b505af1158015612329573d6000803e3d6000fd5b505050506040513d601f19601f8201168201806040525081019061234d9190614630565b9550505050505099509950999650505050505050565b60008082428110156123aa576040517f08c379a00000000000000000000000000000000000000000000000000000000081526004016123a1906144c8565b60405180910390fd5b600073__$29cd54def7ac870639746274e39943fa8d$__633d220cdf7f00000000000000000000000000000000000000000000000000000000000000008e8e8e6040518563ffffffff1660e01b81526004016124099493929190614506565b60206040518083038186803b15801561242157600080fd5b505af4158015612435573d6000803e3d6000fd5b505050506040513d601f19601f820116820180604052508101906124599190614560565b90508073ffffffffffffffffffffffffffffffffffffffff166323b872dd33838c6040518463ffffffff1660e01b815260040161249893929190614dd7565b602060405180830381600087803b1580156124b257600080fd5b505af11580156124c6573d6000803e3d6000fd5b505050506040513d601f19601f820116820180604052508101906124ea91906145ee565b506000808273ffffffffffffffffffffffffffffffffffffffff166389afcb44896040518263ffffffff1660e01b8152600401612527919061416b565b6040805180830381600087803b15801561254057600080fd5b505af1158015612554573d6000803e3d6000fd5b505050506040513d601f19601f820116820180604052508101906125789190614e0e565b9150915060006125888f8f613747565b5090508073ffffffffffffffffffffffffffffffffffffffff168f73ffffffffffffffffffffffffffffffffffffffff16146125c55781836125c8565b82825b80975081985050508a871015612613576040517f08c379a000000000000000000000000000000000000000000000000000000000815260040161260a90614e9a565b60405180910390fd5b89861015612656576040517f08c379a000000000000000000000000000000000000000000000000000000000815260040161264d90614f06565b60405180910390fd5b50505050509850989650505050505050565b600080600073ffffffffffffffffffffffffffffffffffffffff167f000000000000000000000000000000000000000000000000000000000000000073ffffffffffffffffffffffffffffffffffffffff166335a54e068b8b8b6040518463ffffffff1660e01b81526004016126e093929190614c7c565b60206040518083038186803b1580156126f857600080fd5b505afa15801561270c573d6000803e3d6000fd5b505050506040513d601f19601f820116820180604052508101906127309190614560565b73ffffffffffffffffffffffffffffffffffffffff1614156127fd577f000000000000000000000000000000000000000000000000000000000000000073ffffffffffffffffffffffffffffffffffffffff16638d22cf548a8a8a6040518463ffffffff1660e01b81526004016127a993929190614c7c565b602060405180830381600087803b1580156127c357600080fd5b505af11580156127d7573d6000803e3d6000fd5b505050506040513d601f19601f820116820180604052508101906127fb9190614560565b505b60008061282c7f00000000000000000000000000000000000000000000000000000000000000008c8c8c61331c565b915091506000821480156128405750600081145b156128545787878094508195505050612a31565b60003073ffffffffffffffffffffffffffffffffffffffff1663ad615dec8a85856040518463ffffffff1660e01b815260040161289393929190613bcd565b60206040518083038186803b1580156128ab57600080fd5b505afa1580156128bf573d6000803e3d6000fd5b505050506040513d601f19601f820116820180604052508101906128e39190614630565b905087811161293e578581101561292f576040517f08c379a000000000000000000000000000000000000000000000000000000000815260040161292690614f72565b60405180910390fd5b88818095508196505050612a2f565b60003073ffffffffffffffffffffffffffffffffffffffff1663ad615dec8a85876040518463ffffffff1660e01b815260040161297d93929190613bcd565b60206040518083038186803b15801561299557600080fd5b505afa1580156129a9573d6000803e3d6000fd5b505050506040513d601f19601f820116820180604052508101906129cd9190614630565b9050898111156129e0576129df613a09565b5b87811015612a23576040517f08c379a0000000000000000000000000000000000000000000000000000000008152600401612a1a90614fde565b60405180910390fd5b80898096508197505050505b505b505097509795505050505050565b6000808573ffffffffffffffffffffffffffffffffffffffff166323b872dd868686604051602401612a7393929190614dd7565b6040516020818303038152906040529060e01b6020820180517bffffffffffffffffffffffffffffffffffffffffffffffffffffffff8381831617835250505050604051612ac19190615078565b6000604051808303816000865af19150503d8060008114612afe576040519150601f19603f3d011682016040523d82523d6000602084013e612b03565b606091505b5091509150818015612b315750600081511480612b30575080806020019051810190612b2f91906145ee565b5b5b612b70576040517f08c379a0000000000000000000000000000000000000000000000000000000008152600401612b6790615101565b60405180910390fd5b505050505050565b60008273ffffffffffffffffffffffffffffffffffffffff1682600067ffffffffffffffff811115612bad57612bac613f3b565b5b6040519080825280601f01601f191660200182016040528015612bdf5781602001600182028036833780820191505090505b50604051612bed9190615078565b60006040518083038185875af1925050503d8060008114612c2a576040519150601f19603f3d011682016040523d82523d6000602084013e612c2f565b606091505b5050905080612c73576040517f08c379a0000000000000000000000000000000000000000000000000000000008152600401612c6a90615193565b60405180910390fd5b505050565b60005b60018551612c89919061468c565b81101561301d57600080868381518110612ca657612ca56149b8565b5b602002602001015187600185612cbc9190614c17565b81518110612ccd57612ccc6149b8565b5b6020026020010151915091506000612ce58383613747565b509050600089600186612cf89190614c17565b81518110612d0957612d086149b8565b5b602002602001015190506000808373ffffffffffffffffffffffffffffffffffffffff168673ffffffffffffffffffffffffffffffffffffffff1614612d5157826000612d55565b6000835b91509150600060028c51612d69919061468c565b8810612d755788612e70565b73__$29cd54def7ac870639746274e39943fa8d$__633d220cdf7f0000000000000000000000000000000000000000000000000000000000000000888f60028d612dbf9190614c17565b81518110612dd057612dcf6149b8565b5b60200260200101518f8f8e818110612deb57612dea6149b8565b5b9050602002016020810190612e009190614a80565b6040518563ffffffff1660e01b8152600401612e1f9493929190614506565b60206040518083038186803b158015612e3757600080fd5b505af4158015612e4b573d6000803e3d6000fd5b505050506040513d601f19601f82011682018060405250810190612e6f9190614560565b5b905073__$29cd54def7ac870639746274e39943fa8d$__633d220cdf7f000000000000000000000000000000000000000000000000000000000000000089898f8f8e818110612ec257612ec16149b8565b5b9050602002016020810190612ed79190614a80565b6040518563ffffffff1660e01b8152600401612ef69493929190614506565b60206040518083038186803b158015612f0e57600080fd5b505af4158015612f22573d6000803e3d6000fd5b505050506040513d601f19601f82011682018060405250810190612f469190614560565b73ffffffffffffffffffffffffffffffffffffffff1663022c0d9f848484600067ffffffffffffffff811115612f7f57612f7e613f3b565b5b6040519080825280601f01601f191660200182016040528015612fb15781602001600182028036833780820191505090505b506040518563ffffffff1660e01b8152600401612fd194939291906151fd565b600060405180830381600087803b158015612feb57600080fd5b505af1158015612fff573d6000803e3d6000fd5b5050505050505050505050808061301590614cb3565b915050612c7b565b505050505050565b606060028451101561306c576040517f08c379a000000000000000000000000000000000000000000000000000000000815260040161306390615295565b60405180910390fd5b835167ffffffffffffffff81111561308757613086613f3b565b5b6040519080825280602002602001820160405280156130b55781602001602082028036833780820191505090505b50905084816000815181106130cd576130cc6149b8565b5b60200260200101818152505060005b600185516130ea919061468c565b8110156131f8576000806131678988858151811061310b5761310a6149b8565b5b6020026020010151896001876131219190614c17565b81518110613132576131316149b8565b5b602002602001015189898881811061314d5761314c6149b8565b5b90506020020160208101906131629190614a80565b61331c565b915091506131b8848481518110613181576131806149b8565b5b6020026020010151838389898881811061319e5761319d6149b8565b5b90506020020160208101906131b39190614a80565b613202565b846001856131c69190614c17565b815181106131d7576131d66149b8565b5b602002602001018181525050505080806131f090614cb3565b9150506130dc565b5095945050505050565b6000808511613246576040517f08c379a000000000000000000000000000000000000000000000000000000000815260040161323d90615327565b60405180910390fd5b6000841180156132565750600083115b613295576040517f08c379a000000000000000000000000000000000000000000000000000000000815260040161328c906153b9565b60405180910390fd5b60006132be83620186a06132a991906153d9565b63ffffffff168761387590919063ffffffff16565b905060006132d5858361387590919063ffffffff16565b90506000613301836132f3620186a08a61387590919063ffffffff16565b6138e290919063ffffffff16565b9050808261330f919061543c565b9350505050949350505050565b600080600061332b8686613747565b50905060008061333d8989898961393b565b73ffffffffffffffffffffffffffffffffffffffff16630902f1ac6040518163ffffffff1660e01b815260040160606040518083038186803b15801561338257600080fd5b505afa158015613396573d6000803e3d6000fd5b505050506040513d601f19601f820116820180604052508101906133ba91906154c8565b506dffffffffffffffffffffffffffff1691506dffffffffffffffffffffffffffff1691508273ffffffffffffffffffffffffffffffffffffffff168873ffffffffffffffffffffffffffffffffffffffff161461341957808261341c565b81815b809550819650505050505094509492505050565b6000808411613474576040517f08c379a000000000000000000000000000000000000000000000000000000000815260040161346b90615567565b60405180910390fd5b6000831180156134845750600082115b6134c3576040517f08c379a00000000000000000000000000000000000000000000000000000000081526004016134ba906153b9565b60405180910390fd5b826134d7838661387590919063ffffffff16565b6134e1919061543c565b90509392505050565b600080851161352e576040517f08c379a0000000000000000000000000000000000000000000000000000000008152600401613525906155f9565b60405180910390fd5b60008411801561353e5750600083115b61357d576040517f08c379a0000000000000000000000000000000000000000000000000000000008152600401613574906153b9565b60405180910390fd5b60006135a7620186a0613599888861387590919063ffffffff16565b61387590919063ffffffff16565b905060006135e484620186a06135bd91906153d9565b63ffffffff166135d689886139b090919063ffffffff16565b61387590919063ffffffff16565b9050613605600182846135f7919061543c565b6138e290919063ffffffff16565b92505050949350505050565b6000808473ffffffffffffffffffffffffffffffffffffffff1663a9059cbb858560405160240161364392919061458d565b6040516020818303038152906040529060e01b6020820180517bffffffffffffffffffffffffffffffffffffffffffffffffffffffff83818316178352505050506040516136919190615078565b6000604051808303816000865af19150503d80600081146136ce576040519150601f19603f3d011682016040523d82523d6000602084013e6136d3565b606091505b509150915081801561370157506000815114806137005750808060200190518101906136ff91906145ee565b5b5b613740576040517f08c379a00000000000000000000000000000000000000000000000000000000081526004016137379061568b565b60405180910390fd5b5050505050565b6000808273ffffffffffffffffffffffffffffffffffffffff168473ffffffffffffffffffffffffffffffffffffffff1614156137b9576040517f08c379a00000000000000000000000000000000000000000000000000000000081526004016137b0906156f7565b60405180910390fd5b8273ffffffffffffffffffffffffffffffffffffffff168473ffffffffffffffffffffffffffffffffffffffff16106137f35782846137f6565b83835b8092508193505050600073ffffffffffffffffffffffffffffffffffffffff168273ffffffffffffffffffffffffffffffffffffffff16141561386e576040517f08c379a000000000000000000000000000000000000000000000000000000000815260040161386590615763565b60405180910390fd5b9250929050565b60008082148061389d57508282838561388e9190615783565b92508261389b919061543c565b145b6138dc576040517f08c379a00000000000000000000000000000000000000000000000000000000081526004016138d390615829565b60405180910390fd5b92915050565b60008282846138f19190614c17565b9150811015613935576040517f08c379a000000000000000000000000000000000000000000000000000000000815260040161392c90615895565b60405180910390fd5b92915050565b600080600061394a8686613747565b915091508682828660405160200161396493929190615933565b6040516020818303038152906040528051906020012060405160200161398b929190615a3e565b6040516020818303038152906040528051906020012060001c92505050949350505050565b60008282846139bf919061468c565b9150811115613a03576040517f08c379a00000000000000000000000000000000000000000000000000000000081526004016139fa90615acc565b60405180910390fd5b92915050565b7f4e487b7100000000000000000000000000000000000000000000000000000000600052600160045260246000fd5b6000604051905090565b600080fd5b600080fd5b600073ffffffffffffffffffffffffffffffffffffffff82169050919050565b6000613a7782613a4c565b9050919050565b613a8781613a6c565b8114613a9257600080fd5b50565b600081359050613aa481613a7e565b92915050565b600063ffffffff82169050919050565b613ac381613aaa565b8114613ace57600080fd5b50565b600081359050613ae081613aba565b92915050565b6000819050919050565b613af981613ae6565b8114613b0457600080fd5b50565b600081359050613b1681613af0565b92915050565b600080600080600080600060e0888a031215613b3b57613b3a613a42565b5b6000613b498a828b01613a95565b9750506020613b5a8a828b01613ad1565b9650506040613b6b8a828b01613b07565b9550506060613b7c8a828b01613b07565b9450506080613b8d8a828b01613b07565b93505060a0613b9e8a828b01613a95565b92505060c0613baf8a828b01613b07565b91505092959891949750929550565b613bc781613ae6565b82525050565b6000606082019050613be26000830186613bbe565b613bef6020830185613bbe565b613bfc6040830184613bbe565b949350505050565b600080fd5b600080fd5b600080fd5b60008083601f840112613c2957613c28613c04565b5b8235905067ffffffffffffffff811115613c4657613c45613c09565b5b602083019150836020820283011115613c6257613c61613c0e565b5b9250929050565b60008083601f840112613c7f57613c7e613c04565b5b8235905067ffffffffffffffff811115613c9c57613c9b613c09565b5b602083019150836020820283011115613cb857613cb7613c0e565b5b9250929050565b60008060008060008060008060c0898b031215613cdf57613cde613a42565b5b6000613ced8b828c01613b07565b9850506020613cfe8b828c01613b07565b975050604089013567ffffffffffffffff811115613d1f57613d1e613a47565b5b613d2b8b828c01613c13565b9650965050606089013567ffffffffffffffff811115613d4e57613d4d613a47565b5b613d5a8b828c01613c69565b94509450506080613d6d8b828c01613a95565b92505060a0613d7e8b828c01613b07565b9150509295985092959890939650565b600081519050919050565b600082825260208201905092915050565b6000819050602082019050919050565b613dc381613ae6565b82525050565b6000613dd58383613dba565b60208301905092915050565b6000602082019050919050565b6000613df982613d8e565b613e038185613d99565b9350613e0e83613daa565b8060005b83811015613e3f578151613e268882613dc9565b9750613e3183613de1565b925050600181019050613e12565b5085935050505092915050565b60006020820190508181036000830152613e668184613dee565b905092915050565b600080600080600080600060a0888a031215613e8d57613e8c613a42565b5b6000613e9b8a828b01613b07565b975050602088013567ffffffffffffffff811115613ebc57613ebb613a47565b5b613ec88a828b01613c13565b9650965050604088013567ffffffffffffffff811115613eeb57613eea613a47565b5b613ef78a828b01613c69565b94509450506060613f0a8a828b01613a95565b9250506080613f1b8a828b01613b07565b91505092959891949750929550565b6000601f19601f8301169050919050565b7f4e487b7100000000000000000000000000000000000000000000000000000000600052604160045260246000fd5b613f7382613f2a565b810181811067ffffffffffffffff82111715613f9257613f91613f3b565b5b80604052505050565b6000613fa5613a38565b9050613fb18282613f6a565b919050565b600067ffffffffffffffff821115613fd157613fd0613f3b565b5b602082029050602081019050919050565b6000613ff5613ff084613fb6565b613f9b565b9050808382526020820190506020840283018581111561401857614017613c0e565b5b835b81811015614041578061402d8882613a95565b84526020840193505060208101905061401a565b5050509392505050565b600082601f8301126140605761405f613c04565b5b8135614070848260208601613fe2565b91505092915050565b6000806000806060858703121561409357614092613a42565b5b60006140a187828801613b07565b945050602085013567ffffffffffffffff8111156140c2576140c1613a47565b5b6140ce8782880161404b565b935050604085013567ffffffffffffffff8111156140ef576140ee613a47565b5b6140fb87828801613c69565b925092505092959194509250565b60008060006060848603121561412257614121613a42565b5b600061413086828701613a95565b935050602061414186828701613a95565b925050604061415286828701613ad1565b9150509250925092565b61416581613a6c565b82525050565b6000602082019050614180600083018461415c565b92915050565b600080600080608085870312156141a05761419f613a42565b5b60006141ae87828801613b07565b94505060206141bf87828801613b07565b93505060406141d087828801613b07565b92505060606141e187828801613ad1565b91505092959194509250565b60006020820190506142026000830184613bbe565b92915050565b6000806000806080858703121561422257614221613a42565b5b600061423087828801613b07565b945050602061424187828801613a95565b935050604061425287828801613a95565b925050606061426387828801613ad1565b91505092959194509250565b60008060006060848603121561428857614287613a42565b5b600061429686828701613b07565b93505060206142a786828701613b07565b92505060406142b886828701613b07565b9150509250925092565b60006040820190506142d76000830185613bbe565b6142e46020830184613bbe565b9392505050565b60008060008060008060008060006101208a8c03121561430e5761430d613a42565b5b600061431c8c828d01613a95565b995050602061432d8c828d01613a95565b985050604061433e8c828d01613ad1565b975050606061434f8c828d01613b07565b96505060806143608c828d01613b07565b95505060a06143718c828d01613b07565b94505060c06143828c828d01613b07565b93505060e06143938c828d01613a95565b9250506101006143a58c828d01613b07565b9150509295985092959850929598565b600080600080600080600080610100898b0312156143d6576143d5613a42565b5b60006143e48b828c01613a95565b98505060206143f58b828c01613a95565b97505060406144068b828c01613ad1565b96505060606144178b828c01613b07565b95505060806144288b828c01613b07565b94505060a06144398b828c01613b07565b93505060c061444a8b828c01613a95565b92505060e061445b8b828c01613b07565b9150509295985092959890939650565b600082825260208201905092915050565b7f526f757465723a20455850495245440000000000000000000000000000000000600082015250565b60006144b2600f8361446b565b91506144bd8261447c565b602082019050919050565b600060208201905081810360008301526144e1816144a5565b9050919050565b6144f181613a6c565b82525050565b61450081613aaa565b82525050565b600060808201905061451b60008301876144e8565b61452860208301866144e8565b61453560408301856144e8565b61454260608301846144f7565b95945050505050565b60008151905061455a81613a7e565b92915050565b60006020828403121561457657614575613a42565b5b60006145848482850161454b565b91505092915050565b60006040820190506145a2600083018561415c565b6145af6020830184613bbe565b9392505050565b60008115159050919050565b6145cb816145b6565b81146145d657600080fd5b50565b6000815190506145e8816145c2565b92915050565b60006020828403121561460457614603613a42565b5b6000614612848285016145d9565b91505092915050565b60008151905061462a81613af0565b92915050565b60006020828403121561464657614645613a42565b5b60006146548482850161461b565b91505092915050565b7f4e487b7100000000000000000000000000000000000000000000000000000000600052601160045260246000fd5b600061469782613ae6565b91506146a283613ae6565b9250828210156146b5576146b461465d565b5b828203905092915050565b6146c981613ae6565b82525050565b600082825260208201905092915050565b6000819050919050565b6146f381613a6c565b82525050565b600061470583836146ea565b60208301905092915050565b60006147206020840184613a95565b905092915050565b6000602082019050919050565b600061474183856146cf565b935061474c826146e0565b8060005b85811015614785576147628284614711565b61476c88826146f9565b975061477783614728565b925050600181019050614750565b5085925050509392505050565b600082825260208201905092915050565b6000819050919050565b6147b681613aaa565b82525050565b60006147c883836147ad565b60208301905092915050565b60006147e36020840184613ad1565b905092915050565b6000602082019050919050565b60006148048385614792565b935061480f826147a3565b8060005b858110156148485761482582846147d4565b61482f88826147bc565b975061483a836147eb565b925050600181019050614813565b5085925050509392505050565b600060808201905061486a60008301896144e8565b61487760208301886146c0565b818103604083015261488a818688614735565b9050818103606083015261489f8184866147f8565b9050979650505050505050565b600067ffffffffffffffff8211156148c7576148c6613f3b565b5b602082029050602081019050919050565b60006148eb6148e6846148ac565b613f9b565b9050808382526020820190506020840283018581111561490e5761490d613c0e565b5b835b818110156149375780614923888261461b565b845260208401935050602081019050614910565b5050509392505050565b600082601f83011261495657614955613c04565b5b81516149668482602086016148d8565b91505092915050565b60006020828403121561498557614984613a42565b5b600082015167ffffffffffffffff8111156149a3576149a2613a47565b5b6149af84828501614941565b91505092915050565b7f4e487b7100000000000000000000000000000000000000000000000000000000600052603260045260246000fd5b7f526f757465723a204558434553534956455f494e5055545f414d4f554e540000600082015250565b6000614a1d601e8361446b565b9150614a28826149e7565b602082019050919050565b60006020820190508181036000830152614a4c81614a10565b9050919050565b600060208284031215614a6957614a68613a42565b5b6000614a7784828501613a95565b91505092915050565b600060208284031215614a9657614a95613a42565b5b6000614aa484828501613ad1565b91505092915050565b7f526f757465723a20494e56414c49445f50415448000000000000000000000000600082015250565b6000614ae360148361446b565b9150614aee82614aad565b602082019050919050565b60006020820190508181036000830152614b1281614ad6565b9050919050565b7f526f757465723a20494e53554646494349454e545f4f55545055545f414d4f5560008201527f4e54000000000000000000000000000000000000000000000000000000000000602082015250565b6000614b7560228361446b565b9150614b8082614b19565b604082019050919050565b60006020820190508181036000830152614ba481614b68565b9050919050565b7f494e56414c49445f504154480000000000000000000000000000000000000000600082015250565b6000614be1600c8361446b565b9150614bec82614bab565b602082019050919050565b60006020820190508181036000830152614c1081614bd4565b9050919050565b6000614c2282613ae6565b9150614c2d83613ae6565b9250827fffffffffffffffffffffffffffffffffffffffffffffffffffffffffffffffff03821115614c6257614c6161465d565b5b828201905092915050565b614c7681613aaa565b82525050565b6000606082019050614c91600083018661415c565b614c9e602083018561415c565b614cab6040830184614c6d565b949350505050565b6000614cbe82613ae6565b91507fffffffffffffffffffffffffffffffffffffffffffffffffffffffffffffffff821415614cf157614cf061465d565b5b600182019050919050565b600081519050919050565b6000819050602082019050919050565b6000602082019050919050565b6000614d2f82614cfc565b614d3981856146cf565b9350614d4483614d07565b8060005b83811015614d75578151614d5c88826146f9565b9750614d6783614d17565b925050600181019050614d48565b5085935050505092915050565b6000608082019050614d9760008301886144e8565b614da460208301876146c0565b8181036040830152614db68186614d24565b90508181036060830152614dcb8184866147f8565b90509695505050505050565b6000606082019050614dec600083018661415c565b614df9602083018561415c565b614e066040830184613bbe565b949350505050565b60008060408385031215614e2557614e24613a42565b5b6000614e338582860161461b565b9250506020614e448582860161461b565b9150509250929050565b7f526f757465723a20494e53554646494349454e545f415f414d4f554e54000000600082015250565b6000614e84601d8361446b565b9150614e8f82614e4e565b602082019050919050565b60006020820190508181036000830152614eb381614e77565b9050919050565b7f526f757465723a20494e53554646494349454e545f425f414d4f554e54000000600082015250565b6000614ef0601d8361446b565b9150614efb82614eba565b602082019050919050565b60006020820190508181036000830152614f1f81614ee3565b9050919050565b7f526f757465723a20494e53554646494349454e54204220414d4f554e54000000600082015250565b6000614f5c601d8361446b565b9150614f6782614f26565b602082019050919050565b60006020820190508181036000830152614f8b81614f4f565b9050919050565b7f526f757465723a20494e53554646494349454e54204120414d4f554e54000000600082015250565b6000614fc8601d8361446b565b9150614fd382614f92565b602082019050919050565b60006020820190508181036000830152614ff781614fbb565b9050919050565b600081519050919050565b600081905092915050565b60005b83811015615032578082015181840152602081019050615017565b83811115615041576000848401525b50505050565b600061505282614ffe565b61505c8185615009565b935061506c818560208601615014565b80840191505092915050565b60006150848284615047565b915081905092915050565b7f526f757465723a3a7472616e7366657246726f6d3a207472616e73666572467260008201527f6f6d206661696c65640000000000000000000000000000000000000000000000602082015250565b60006150eb60298361446b565b91506150f68261508f565b604082019050919050565b6000602082019050818103600083015261511a816150de565b9050919050565b7f526f757465723a3a736166655472616e736665724e61746976653a204e61746960008201527f7665207472616e73666572206661696c65640000000000000000000000000000602082015250565b600061517d60328361446b565b915061518882615121565b604082019050919050565b600060208201905081810360008301526151ac81615170565b9050919050565b600082825260208201905092915050565b60006151cf82614ffe565b6151d981856151b3565b93506151e9818560208601615014565b6151f281613f2a565b840191505092915050565b60006080820190506152126000830187613bbe565b61521f6020830186613bbe565b61522c604083018561415c565b818103606083015261523e81846151c4565b905095945050505050565b7f4445584c6962726172793a20494e56414c49445f504154480000000000000000600082015250565b600061527f60188361446b565b915061528a82615249565b602082019050919050565b600060208201905081810360008301526152ae81615272565b9050919050565b7f4445584c6962726172793a20494e53554646494349454e545f494e5055545f4160008201527f4d4f554e54000000000000000000000000000000000000000000000000000000602082015250565b600061531160258361446b565b915061531c826152b5565b604082019050919050565b6000602082019050818103600083015261534081615304565b9050919050565b7f4445584c6962726172793a20494e53554646494349454e545f4c49515549444960008201527f5459000000000000000000000000000000000000000000000000000000000000602082015250565b60006153a360228361446b565b91506153ae82615347565b604082019050919050565b600060208201905081810360008301526153d281615396565b9050919050565b60006153e482613aaa565b91506153ef83613aaa565b9250828210156154025761540161465d565b5b828203905092915050565b7f4e487b7100000000000000000000000000000000000000000000000000000000600052601260045260246000fd5b600061544782613ae6565b915061545283613ae6565b9250826154625761546161540d565b5b828204905092915050565b60006dffffffffffffffffffffffffffff82169050919050565b6154908161546d565b811461549b57600080fd5b50565b6000815190506154ad81615487565b92915050565b6000815190506154c281613aba565b92915050565b6000806000606084860312156154e1576154e0613a42565b5b60006154ef8682870161549e565b93505060206155008682870161549e565b9250506040615511868287016154b3565b9150509250925092565b7f4445584c6962726172793a20494e53554646494349454e545f414d4f554e5400600082015250565b6000615551601f8361446b565b915061555c8261551b565b602082019050919050565b6000602082019050818103600083015261558081615544565b9050919050565b7f4445584c6962726172793a20494e53554646494349454e545f4f55545055545f60008201527f414d4f554e540000000000000000000000000000000000000000000000000000602082015250565b60006155e360268361446b565b91506155ee82615587565b604082019050919050565b60006020820190508181036000830152615612816155d6565b9050919050565b7f526f757465723a3a736166655472616e736665723a207472616e73666572206660008201527f61696c6564000000000000000000000000000000000000000000000000000000602082015250565b600061567560258361446b565b915061568082615619565b604082019050919050565b600060208201905081810360008301526156a481615668565b9050919050565b7f4445584c6962726172793a204944454e544943414c5f41444452455353455300600082015250565b60006156e1601f8361446b565b91506156ec826156ab565b602082019050919050565b60006020820190508181036000830152615710816156d4565b9050919050565b7f4445584c6962726172793a205a45524f5f414444524553530000000000000000600082015250565b600061574d60188361446b565b915061575882615717565b602082019050919050565b6000602082019050818103600083015261577c81615740565b9050919050565b600061578e82613ae6565b915061579983613ae6565b9250817fffffffffffffffffffffffffffffffffffffffffffffffffffffffffffffffff04831182151516156157d2576157d161465d565b5b828202905092915050565b7f64732d6d6174682d6d756c2d6f766572666c6f77000000000000000000000000600082015250565b600061581360148361446b565b915061581e826157dd565b602082019050919050565b6000602082019050818103600083015261584281615806565b9050919050565b7f64732d6d6174682d6164642d6f766572666c6f77000000000000000000000000600082015250565b600061587f60148361446b565b915061588a82615849565b602082019050919050565b600060208201905081810360008301526158ae81615872565b9050919050565b60008160601b9050919050565b60006158cd826158b5565b9050919050565b60006158df826158c2565b9050919050565b6158f76158f282613a6c565b6158d4565b82525050565b60008160e01b9050919050565b6000615915826158fd565b9050919050565b61592d61592882613aaa565b61590a565b82525050565b600061593f82866158e6565b60148201915061594f82856158e6565b60148201915061595f828461591c565b600482019150819050949350505050565b600081905092915050565b7fff00000000000000000000000000000000000000000000000000000000000000600082015250565b60006159b1600183615970565b91506159bc8261597b565b600182019050919050565b6000819050919050565b6000819050919050565b6159ec6159e7826159c7565b6159d1565b82525050565b7f4865ea389995915db67b44b39fd00c73c081158e770991b408389498fb8dc480600082015250565b6000615a28602083615970565b9150615a33826159f2565b602082019050919050565b6000615a49826159a4565b9150615a5582856158e6565b601482019150615a6582846159db565b602082019150615a7482615a1b565b91508190509392505050565b7f64732d6d6174682d7375622d756e646572666c6f770000000000000000000000600082015250565b6000615ab660158361446b565b9150615ac182615a80565b602082019050919050565b60006020820190508181036000830152615ae581615aa9565b905091905056fea2646970667358221220f76620214793337619e9d83f7ed24cf9ff2d87ff236830f417f25477065817b764736f6c63430008090033",
  "linkReferences": {
    "contracts/router/libraries/DEXLibrary.sol": {
      "DEXLibrary": [
        {
          "length": 20,
          "start": 2102
        },
        {
          "length": 20,
          "start": 2892
        },
        {
          "length": 20,
          "start": 3215
        },
        {
          "length": 20,
          "start": 4318
        },
        {
          "length": 20,
          "start": 5453
        },
        {
          "length": 20,
          "start": 7147
        },
        {
          "length": 20,
          "start": 7830
        },
        {
          "length": 20,
          "start": 8153
        },
        {
          "length": 20,
          "start": 9328
        },
        {
          "length": 20,
          "start": 9761
        },
        {
          "length": 20,
          "start": 12266
        },
        {
          "length": 20,
          "start": 12519
        }
      ]
    }
  },
  "deployedLinkReferences": {
    "contracts/router/libraries/DEXLibrary.sol": {
      "DEXLibrary": [
        {
          "length": 20,
          "start": 1475
        },
        {
          "length": 20,
          "start": 2265
        },
        {
          "length": 20,
          "start": 2588
        },
        {
          "length": 20,
          "start": 3691
        },
        {
          "length": 20,
          "start": 4826
        },
        {
          "length": 20,
          "start": 6520
        },
        {
          "length": 20,
          "start": 7203
        },
        {
          "length": 20,
          "start": 7526
        },
        {
          "length": 20,
          "start": 8701
        },
        {
          "length": 20,
          "start": 9134
        },
        {
          "length": 20,
          "start": 11639
        },
        {
          "length": 20,
          "start": 11892
        }
      ]
    }
  }
}