{
  "_format": "hh-sol-artifact-1",
  "contractName": "RouterV2",
  "sourceName": "contracts/router/RouterV2.sol",
  "abi": [
    {
      "inputs": [
        {
          "internalType": "address",
          "name": "_factory",
          "type": "address"
        },
        {
          "internalType": "address",
          "name": "_WNative",
          "type": "address"
        }
      ],
      "stateMutability": "nonpayable",
      "type": "constructor"
    },
    {
      "inputs": [],
      "name": "WNative",
      "outputs": [
        {
          "internalType": "address",
          "name": "",
          "type": "address"
        }
      ],
      "stateMutability": "view",
      "type": "function"
    },
    {
      "inputs": [
        {
          "internalType": "address",
          "name": "tokenA",
          "type": "address"
        },
        {
          "internalType": "address",
          "name": "tokenB",
          "type": "address"
        },
        {
          "internalType": "uint32",
          "name": "fee",
          "type": "uint32"
        },
        {
          "internalType": "uint256",
          "name": "amountADesired",
          "type": "uint256"
        },
        {
          "internalType": "uint256",
          "name": "amountBDesired",
          "type": "uint256"
        },
        {
          "internalType": "uint256",
          "name": "amountAMin",
          "type": "uint256"
        },
        {
          "internalType": "uint256",
          "name": "amountBMin",
          "type": "uint256"
        },
        {
          "internalType": "address",
          "name": "to",
          "type": "address"
        },
        {
          "internalType": "uint256",
          "name": "deadline",
          "type": "uint256"
        }
      ],
      "name": "addLiquidity",
      "outputs": [
        {
          "internalType": "uint256",
          "name": "amountA",
          "type": "uint256"
        },
        {
          "internalType": "uint256",
          "name": "amountB",
          "type": "uint256"
        },
        {
          "internalType": "uint256",
          "name": "liquidity",
          "type": "uint256"
        }
      ],
      "stateMutability": "nonpayable",
      "type": "function"
    },
    {
      "inputs": [
        {
          "internalType": "address",
          "name": "token",
          "type": "address"
        },
        {
          "internalType": "uint32",
          "name": "fee",
          "type": "uint32"
        },
        {
          "internalType": "uint256",
          "name": "amountTokenDesired",
          "type": "uint256"
        },
        {
          "internalType": "uint256",
          "name": "amountTokenMin",
          "type": "uint256"
        },
        {
          "internalType": "uint256",
          "name": "amountNativeMin",
          "type": "uint256"
        },
        {
          "internalType": "address",
          "name": "to",
          "type": "address"
        },
        {
          "internalType": "uint256",
          "name": "deadline",
          "type": "uint256"
        }
      ],
      "name": "addLiquidityNative",
      "outputs": [
        {
          "internalType": "uint256",
          "name": "amountToken",
          "type": "uint256"
        },
        {
          "internalType": "uint256",
          "name": "amountNative",
          "type": "uint256"
        },
        {
          "internalType": "uint256",
          "name": "liquidity",
          "type": "uint256"
        }
      ],
      "stateMutability": "payable",
      "type": "function"
    },
    {
      "inputs": [],
      "name": "factory",
      "outputs": [
        {
          "internalType": "address",
          "name": "",
          "type": "address"
        }
      ],
      "stateMutability": "view",
      "type": "function"
    },
    {
      "inputs": [
        {
          "internalType": "uint256",
          "name": "amountOut",
          "type": "uint256"
        },
        {
          "internalType": "uint256",
          "name": "reserveIn",
          "type": "uint256"
        },
        {
          "internalType": "uint256",
          "name": "reserveOut",
          "type": "uint256"
        },
        {
          "internalType": "uint32",
          "name": "fee",
          "type": "uint32"
        }
      ],
      "name": "getAmountIn",
      "outputs": [
        {
          "internalType": "uint256",
          "name": "amountIn",
          "type": "uint256"
        }
      ],
      "stateMutability": "pure",
      "type": "function"
    },
    {
      "inputs": [
        {
          "internalType": "uint256",
          "name": "amountIn",
          "type": "uint256"
        },
        {
          "internalType": "uint256",
          "name": "reserveIn",
          "type": "uint256"
        },
        {
          "internalType": "uint256",
          "name": "reserveOut",
          "type": "uint256"
        },
        {
          "internalType": "uint32",
          "name": "fee",
          "type": "uint32"
        }
      ],
      "name": "getAmountOut",
      "outputs": [
        {
          "internalType": "uint256",
          "name": "amountOut",
          "type": "uint256"
        }
      ],
      "stateMutability": "pure",
      "type": "function"
    },
    {
      "inputs": [
        {
          "internalType": "uint256",
          "name": "amountOut",
          "type": "uint256"
        },
        {
          "internalType": "address[]",
          "name": "path",
          "type": "address[]"
        },
        {
          "internalType": "uint32[]",
          "name": "feePath",
          "type": "uint32[]"
        }
      ],
      "name": "getAmountsIn",
      "outputs": [
        {
          "internalType": "uint256[]",
          "name": "amounts",
          "type": "uint256[]"
        }
      ],
      "stateMutability": "view",
      "type": "function"
    },
    {
      "inputs": [
        {
          "internalType": "uint256",
          "name": "amountIn",
          "type": "uint256"
        },
        {
          "internalType": "address[]",
          "name": "path",
          "type": "address[]"
        },
        {
          "internalType": "uint32[]",
          "name": "feePath",
          "type": "uint32[]"
        }
      ],
      "name": "getAmountsOut",
      "outputs": [
        {
          "internalType": "uint256[]",
          "name": "amounts",
          "type": "uint256[]"
        }
      ],
      "stateMutability": "view",
      "type": "function"
    },
    {
      "inputs": [
        {
          "internalType": "address",
          "name": "tokenA",
          "type": "address"
        },
        {
          "internalType": "address",
          "name": "tokenB",
          "type": "address"
        },
        {
          "internalType": "uint32",
          "name": "poolFee",
          "type": "uint32"
        }
      ],
      "name": "pairAddress",
      "outputs": [
        {
          "internalType": "address",
          "name": "",
          "type": "address"
        }
      ],
      "stateMutability": "view",
      "type": "function"
    },
    {
      "inputs": [
        {
          "internalType": "uint256",
          "name": "amountA",
          "type": "uint256"
        },
        {
          "internalType": "uint256",
          "name": "reserveA",
          "type": "uint256"
        },
        {
          "internalType": "uint256",
          "name": "reserveB",
          "type": "uint256"
        }
      ],
      "name": "quote",
      "outputs": [
        {
          "internalType": "uint256",
          "name": "amountB",
          "type": "uint256"
        }
      ],
      "stateMutability": "pure",
      "type": "function"
    },
    {
      "inputs": [
        {
          "internalType": "uint256",
          "name": "amountA",
          "type": "uint256"
        },
        {
          "internalType": "address",
          "name": "tokenA",
          "type": "address"
        },
        {
          "internalType": "address",
          "name": "tokenB",
          "type": "address"
        },
        {
          "internalType": "uint32",
          "name": "fee",
          "type": "uint32"
        }
      ],
      "name": "quoteByTokens",
      "outputs": [
        {
          "internalType": "uint256",
          "name": "amountB",
          "type": "uint256"
        }
      ],
      "stateMutability": "view",
      "type": "function"
    },
    {
      "inputs": [
        {
          "internalType": "address",
          "name": "tokenA",
          "type": "address"
        },
        {
          "internalType": "address",
          "name": "tokenB",
          "type": "address"
        },
        {
          "internalType": "uint32",
          "name": "fee",
          "type": "uint32"
        },
        {
          "internalType": "uint256",
          "name": "liquidity",
          "type": "uint256"
        },
        {
          "internalType": "uint256",
          "name": "amountAMin",
          "type": "uint256"
        },
        {
          "internalType": "uint256",
          "name": "amountBMin",
          "type": "uint256"
        },
        {
          "internalType": "address",
          "name": "to",
          "type": "address"
        },
        {
          "internalType": "uint256",
          "name": "deadline",
          "type": "uint256"
        }
      ],
      "name": "removeLiquidity",
      "outputs": [
        {
          "internalType": "uint256",
          "name": "amountA",
          "type": "uint256"
        },
        {
          "internalType": "uint256",
          "name": "amountB",
          "type": "uint256"
        }
      ],
      "stateMutability": "nonpayable",
      "type": "function"
    },
    {
      "inputs": [
        {
          "internalType": "address",
          "name": "token",
          "type": "address"
        },
        {
          "internalType": "uint32",
          "name": "fee",
          "type": "uint32"
        },
        {
          "internalType": "uint256",
          "name": "liquidity",
          "type": "uint256"
        },
        {
          "internalType": "uint256",
          "name": "amountTokenMin",
          "type": "uint256"
        },
        {
          "internalType": "uint256",
          "name": "amountNativeMin",
          "type": "uint256"
        },
        {
          "internalType": "address",
          "name": "to",
          "type": "address"
        },
        {
          "internalType": "uint256",
          "name": "deadline",
          "type": "uint256"
        }
      ],
      "name": "removeLiquidityNative",
      "outputs": [
        {
          "internalType": "uint256",
          "name": "amountToken",
          "type": "uint256"
        },
        {
          "internalType": "uint256",
          "name": "amountNative",
          "type": "uint256"
        }
      ],
      "stateMutability": "nonpayable",
      "type": "function"
    },
    {
      "inputs": [
        {
          "internalType": "address",
          "name": "token",
          "type": "address"
        },
        {
          "internalType": "uint32",
          "name": "fee",
          "type": "uint32"
        },
        {
          "internalType": "uint256",
          "name": "liquidity",
          "type": "uint256"
        },
        {
          "internalType": "uint256",
          "name": "amountTokenMin",
          "type": "uint256"
        },
        {
          "internalType": "uint256",
          "name": "amountNativeMin",
          "type": "uint256"
        },
        {
          "internalType": "address",
          "name": "to",
          "type": "address"
        },
        {
          "internalType": "uint256",
          "name": "deadline",
          "type": "uint256"
        }
      ],
      "name": "removeLiquidityNativeSupportingFeeOnTransferTokens",
      "outputs": [
        {
          "internalType": "uint256",
          "name": "amountNative",
          "type": "uint256"
        }
      ],
      "stateMutability": "nonpayable",
      "type": "function"
    },
    {
      "inputs": [
        {
          "internalType": "uint256",
          "name": "amountOutMin",
          "type": "uint256"
        },
        {
          "internalType": "address[]",
          "name": "path",
          "type": "address[]"
        },
        {
          "internalType": "uint32[]",
          "name": "feePath",
          "type": "uint32[]"
        },
        {
          "internalType": "address",
          "name": "to",
          "type": "address"
        },
        {
          "internalType": "uint256",
          "name": "deadline",
          "type": "uint256"
        }
      ],
      "name": "swapExactNativeForTokens",
      "outputs": [
        {
          "internalType": "uint256[]",
          "name": "amounts",
          "type": "uint256[]"
        }
      ],
      "stateMutability": "payable",
      "type": "function"
    },
    {
      "inputs": [
        {
          "internalType": "uint256",
          "name": "amountOutMin",
          "type": "uint256"
        },
        {
          "internalType": "address[]",
          "name": "path",
          "type": "address[]"
        },
        {
          "internalType": "uint32[]",
          "name": "feePath",
          "type": "uint32[]"
        },
        {
          "internalType": "address",
          "name": "to",
          "type": "address"
        },
        {
          "internalType": "uint256",
          "name": "deadline",
          "type": "uint256"
        }
      ],
      "name": "swapExactNativeForTokensSupportingFeeOnTransferTokens",
      "outputs": [],
      "stateMutability": "payable",
      "type": "function"
    },
    {
      "inputs": [
        {
          "internalType": "uint256",
          "name": "amountIn",
          "type": "uint256"
        },
        {
          "internalType": "uint256",
          "name": "amountOutMin",
          "type": "uint256"
        },
        {
          "internalType": "address[]",
          "name": "path",
          "type": "address[]"
        },
        {
          "internalType": "uint32[]",
          "name": "feePath",
          "type": "uint32[]"
        },
        {
          "internalType": "address",
          "name": "to",
          "type": "address"
        },
        {
          "internalType": "uint256",
          "name": "deadline",
          "type": "uint256"
        }
      ],
      "name": "swapExactTokensForNativeSupportingFeeOnTransferTokens",
      "outputs": [],
      "stateMutability": "nonpayable",
      "type": "function"
    },
    {
      "inputs": [
        {
          "internalType": "uint256",
          "name": "amountIn",
          "type": "uint256"
        },
        {
          "internalType": "uint256",
          "name": "amountOutMin",
          "type": "uint256"
        },
        {
          "internalType": "address[]",
          "name": "path",
          "type": "address[]"
        },
        {
          "internalType": "uint32[]",
          "name": "feePath",
          "type": "uint32[]"
        },
        {
          "internalType": "address",
          "name": "to",
          "type": "address"
        },
        {
          "internalType": "uint256",
          "name": "deadline",
          "type": "uint256"
        }
      ],
      "name": "swapExactTokensForTokens",
      "outputs": [
        {
          "internalType": "uint256[]",
          "name": "amounts",
          "type": "uint256[]"
        }
      ],
      "stateMutability": "nonpayable",
      "type": "function"
    },
    {
      "inputs": [
        {
          "internalType": "uint256",
          "name": "amountIn",
          "type": "uint256"
        },
        {
          "internalType": "uint256",
          "name": "amountOutMin",
          "type": "uint256"
        },
        {
          "internalType": "address[]",
          "name": "path",
          "type": "address[]"
        },
        {
          "internalType": "uint32[]",
          "name": "feePath",
          "type": "uint32[]"
        },
        {
          "internalType": "address",
          "name": "to",
          "type": "address"
        },
        {
          "internalType": "uint256",
          "name": "deadline",
          "type": "uint256"
        }
      ],
      "name": "swapExactTokensForTokensSupportingFeeOnTransferTokens",
      "outputs": [],
      "stateMutability": "nonpayable",
      "type": "function"
    },
    {
      "inputs": [
        {
          "internalType": "uint256",
          "name": "amountOut",
          "type": "uint256"
        },
        {
          "internalType": "uint256",
          "name": "amountInMax",
          "type": "uint256"
        },
        {
          "internalType": "address[]",
          "name": "path",
          "type": "address[]"
        },
        {
          "internalType": "uint32[]",
          "name": "feePath",
          "type": "uint32[]"
        },
        {
          "internalType": "address",
          "name": "to",
          "type": "address"
        },
        {
          "internalType": "uint256",
          "name": "deadline",
          "type": "uint256"
        }
      ],
      "name": "swapTokensForExactNative",
      "outputs": [
        {
          "internalType": "uint256[]",
          "name": "amounts",
          "type": "uint256[]"
        }
      ],
      "stateMutability": "nonpayable",
      "type": "function"
    },
    {
      "inputs": [
        {
          "internalType": "uint256",
          "name": "amountOut",
          "type": "uint256"
        },
        {
          "internalType": "uint256",
          "name": "amountInMax",
          "type": "uint256"
        },
        {
          "internalType": "address[]",
          "name": "path",
          "type": "address[]"
        },
        {
          "internalType": "uint32[]",
          "name": "feePath",
          "type": "uint32[]"
        },
        {
          "internalType": "address",
          "name": "to",
          "type": "address"
        },
        {
          "internalType": "uint256",
          "name": "deadline",
          "type": "uint256"
        }
      ],
      "name": "swapTokensForExactTokens",
      "outputs": [
        {
          "internalType": "uint256[]",
          "name": "amounts",
          "type": "uint256[]"
        }
      ],
      "stateMutability": "nonpayable",
      "type": "function"
    },
    {
      "stateMutability": "payable",
      "type": "receive"
    }
  ],
  "bytecode": "0x60c06040523480156200001157600080fd5b506040516200746a3803806200746a833981810160405281019062000037919062000115565b81818173ffffffffffffffffffffffffffffffffffffffff1660808173ffffffffffffffffffffffffffffffffffffffff16815250508073ffffffffffffffffffffffffffffffffffffffff1660a08173ffffffffffffffffffffffffffffffffffffffff1681525050505050506200015c565b600080fd5b600073ffffffffffffffffffffffffffffffffffffffff82169050919050565b6000620000dd82620000b0565b9050919050565b620000ef81620000d0565b8114620000fb57600080fd5b50565b6000815190506200010f81620000e4565b92915050565b600080604083850312156200012f576200012e620000ab565b5b60006200013f85828601620000fe565b92505060206200015285828601620000fe565b9150509250929050565b60805160a051617198620002d26000396000818161013501528181610665015281816106d601528181610775015281816107f601528181610cda01528181610e6a01528181610f06015281816114760152818161153b015281816121a501528181612540015281816126740152818161272f015281816127b001528181612c6801528181612f1301528181613001015281816130ed0152818161312c01526131f20152600081816106b4015281816109ca01528181610b0d01528181610d9301528181610f5c015281816111ba015281816113cb015281816115dd0152818161170c015281816119060152818161193e01528181611a2701528181611ab601528181611bd401528181611de601528181612283015281816123c60152818161280601528181612d73015281816131ce015281816132a1015281816134520152818161370f015281816137d80152818161388f01528181613e1b01528181613f180152818161475701526149b701526171986000f3fe60806040526004361061012e5760003560e01c80637b888eea116100ab578063b48ceb1a1161006f578063b48ceb1a146104dc578063c1aab88614610505578063c45a015514610543578063f3ec43c71461056e578063f5ad1d0a14610599578063fe9d7b29146105d857610191565b80637b888eea146103e057806381382402146104095780638a2bcf8d146104465780639cd0761514610462578063ad615dec1461049f57610191565b806345bc4b56116100f257806345bc4b56146102af57806351060464146102ec57806353e6beaa146103295780636d9093531461036657806372c61119146103a357610191565b806305476e1714610196578063119b04d6146101c85780631d6b0b9a1461020557806322a4589a1461023557806324a7bb101461027257610191565b36610191577f000000000000000000000000000000000000000000000000000000000000000073ffffffffffffffffffffffffffffffffffffffff163373ffffffffffffffffffffffffffffffffffffffff161461018f5761018e614f81565b5b005b600080fd5b6101b060048036038101906101ab9190615094565b610616565b6040516101bf93929190615145565b60405180910390f35b3480156101d457600080fd5b506101ef60048036038101906101ea9190615237565b610968565b6040516101fc91906153c4565b60405180910390f35b61021f600480360381019061021a91906153e6565b610c92565b60405161022c91906153c4565b60405180910390f35b34801561024157600080fd5b5061025c600480360381019061025791906155f1565b611157565b60405161026991906153c4565b60405180910390f35b34801561027e57600080fd5b5061029960048036038101906102949190615094565b61146e565b6040516102a69190615681565b60405180910390f35b3480156102bb57600080fd5b506102d660048036038101906102d1919061569c565b6115d9565b6040516102e391906156fe565b60405180910390f35b3480156102f857600080fd5b50610313600480360381019061030e9190615719565b611691565b6040516103209190615681565b60405180910390f35b34801561033557600080fd5b50610350600480360381019061034b91906155f1565b6116a9565b60405161035d91906153c4565b60405180910390f35b34801561037257600080fd5b5061038d60048036038101906103889190615780565b611939565b60405161039a9190615681565b60405180910390f35b3480156103af57600080fd5b506103ca60048036038101906103c59190615237565b611a6b565b6040516103d791906153c4565b60405180910390f35b3480156103ec57600080fd5b5061040760048036038101906104029190615237565b611d59565b005b34801561041557600080fd5b50610430600480360381019061042b9190615237565b61215d565b60405161043d91906153c4565b60405180910390f35b610460600480360381019061045b91906153e6565b61262e565b005b34801561046e57600080fd5b5061048960048036038101906104849190615719565b612bf4565b6040516104969190615681565b60405180910390f35b3480156104ab57600080fd5b506104c660048036038101906104c191906157e7565b612c0c565b6040516104d39190615681565b60405180910390f35b3480156104e857600080fd5b5061050360048036038101906104fe9190615237565b612c22565b005b34801561051157600080fd5b5061052c60048036038101906105279190615094565b6130a0565b60405161053a92919061583a565b60405180910390f35b34801561054f57600080fd5b506105586131cc565b60405161056591906156fe565b60405180910390f35b34801561057a57600080fd5b506105836131f0565b60405161059091906156fe565b60405180910390f35b3480156105a557600080fd5b506105c060048036038101906105bb9190615863565b613214565b6040516105cf93929190615145565b60405180910390f35b3480156105e457600080fd5b506105ff60048036038101906105fa919061592d565b6133ed565b60405161060d92919061583a565b60405180910390f35b6000806000834281101561065f576040517f08c379a000000000000000000000000000000000000000000000000000000000815260040161065690615a40565b60405180910390fd5b61068e8b7f00000000000000000000000000000000000000000000000000000000000000008c8c348d8d6136f2565b8094508195505050600073__$29cd54def7ac870639746274e39943fa8d$__633d220cdf7f00000000000000000000000000000000000000000000000000000000000000008e7f00000000000000000000000000000000000000000000000000000000000000008f6040518563ffffffff1660e01b81526004016107159493929190615a7e565b60206040518083038186803b15801561072d57600080fd5b505af4158015610741573d6000803e3d6000fd5b505050506040513d601f19601f820116820180604052508101906107659190615ad8565b90506107738c338388613ac9565b7f000000000000000000000000000000000000000000000000000000000000000073ffffffffffffffffffffffffffffffffffffffff1663d0e30db0856040518263ffffffff1660e01b81526004016000604051808303818588803b1580156107db57600080fd5b505af11580156107ef573d6000803e3d6000fd5b50505050507f000000000000000000000000000000000000000000000000000000000000000073ffffffffffffffffffffffffffffffffffffffff1663a9059cbb82866040518363ffffffff1660e01b815260040161084f929190615b05565b602060405180830381600087803b15801561086957600080fd5b505af115801561087d573d6000803e3d6000fd5b505050506040513d601f19601f820116820180604052508101906108a19190615b66565b6108ae576108ad614f81565b5b8073ffffffffffffffffffffffffffffffffffffffff16636a627842886040518263ffffffff1660e01b81526004016108e791906156fe565b602060405180830381600087803b15801561090157600080fd5b505af1158015610915573d6000803e3d6000fd5b505050506040513d601f19601f820116820180604052508101906109399190615ba8565b925083341115610959576109583385346109539190615c04565b613c02565b5b50509750975097945050505050565b606081428110156109ae576040517f08c379a00000000000000000000000000000000000000000000000000000000081526004016109a590615a40565b60405180910390fd5b73__$29cd54def7ac870639746274e39943fa8d$__6371847da87f00000000000000000000000000000000000000000000000000000000000000008c8b8b8b8b6040518763ffffffff1660e01b8152600401610a0f96959493929190615dcd565b60006040518083038186803b158015610a2757600080fd5b505af4158015610a3b573d6000803e3d6000fd5b505050506040513d6000823e3d601f19601f82011682018060405250810190610a649190615ee7565b91508882600081518110610a7b57610a7a615f30565b5b60200260200101511115610ac4576040517f08c379a0000000000000000000000000000000000000000000000000000000008152600401610abb90615fab565b60405180910390fd5b610c3788886000818110610adb57610ada615f30565b5b9050602002016020810190610af09190615fcb565b3373__$29cd54def7ac870639746274e39943fa8d$__633d220cdf7f00000000000000000000000000000000000000000000000000000000000000008d8d6000818110610b4057610b3f615f30565b5b9050602002016020810190610b559190615fcb565b8e8e6001818110610b6957610b68615f30565b5b9050602002016020810190610b7e9190615fcb565b8d8d6000818110610b9257610b91615f30565b5b9050602002016020810190610ba79190615ff8565b6040518563ffffffff1660e01b8152600401610bc69493929190615a7e565b60206040518083038186803b158015610bde57600080fd5b505af4158015610bf2573d6000803e3d6000fd5b505050506040513d601f19601f82011682018060405250810190610c169190615ad8565b85600081518110610c2a57610c29615f30565b5b6020026020010151613ac9565b610c8582898980806020026020016040519081016040528093929190818152602001838360200280828437600081840152601f19601f82011690508083019250505050505050888888613d02565b5098975050505050505050565b60608142811015610cd8576040517f08c379a0000000000000000000000000000000000000000000000000000000008152600401610ccf90615a40565b60405180910390fd5b7f000000000000000000000000000000000000000000000000000000000000000073ffffffffffffffffffffffffffffffffffffffff1688886000818110610d2357610d22615f30565b5b9050602002016020810190610d389190615fcb565b73ffffffffffffffffffffffffffffffffffffffff1614610d8e576040517f08c379a0000000000000000000000000000000000000000000000000000000008152600401610d8590616071565b60405180910390fd5b610dfc7f0000000000000000000000000000000000000000000000000000000000000000348a8a80806020026020016040519081016040528093929190818152602001838360200280828437600081840152601f19601f8201169050808301925050505050505089896140af565b9150888260018451610e0e9190615c04565b81518110610e1f57610e1e615f30565b5b60200260200101511015610e68576040517f08c379a0000000000000000000000000000000000000000000000000000000008152600401610e5f90616103565b60405180910390fd5b7f000000000000000000000000000000000000000000000000000000000000000073ffffffffffffffffffffffffffffffffffffffff1663d0e30db083600081518110610eb857610eb7615f30565b5b60200260200101516040518263ffffffff1660e01b81526004016000604051808303818588803b158015610eeb57600080fd5b505af1158015610eff573d6000803e3d6000fd5b50505050507f000000000000000000000000000000000000000000000000000000000000000073ffffffffffffffffffffffffffffffffffffffff1663a9059cbb73__$29cd54def7ac870639746274e39943fa8d$__633d220cdf7f00000000000000000000000000000000000000000000000000000000000000008c8c6000818110610f8f57610f8e615f30565b5b9050602002016020810190610fa49190615fcb565b8d8d6001818110610fb857610fb7615f30565b5b9050602002016020810190610fcd9190615fcb565b8c8c6000818110610fe157610fe0615f30565b5b9050602002016020810190610ff69190615ff8565b6040518563ffffffff1660e01b81526004016110159493929190615a7e565b60206040518083038186803b15801561102d57600080fd5b505af4158015611041573d6000803e3d6000fd5b505050506040513d601f19601f820116820180604052508101906110659190615ad8565b8460008151811061107957611078615f30565b5b60200260200101516040518363ffffffff1660e01b815260040161109e929190615b05565b602060405180830381600087803b1580156110b857600080fd5b505af11580156110cc573d6000803e3d6000fd5b505050506040513d601f19601f820116820180604052508101906110f09190615b66565b6110fd576110fc614f81565b5b61114b82898980806020026020016040519081016040528093929190818152602001838360200280828437600081840152601f19601f82011690508083019250505050505050888888613d02565b50979650505050505050565b606060028451101561119e576040517f08c379a00000000000000000000000000000000000000000000000000000000081526004016111959061616f565b60405180910390fd5b60005b600185516111af9190615c04565b8110156113ae5760007f000000000000000000000000000000000000000000000000000000000000000073ffffffffffffffffffffffffffffffffffffffff166335a54e0687848151811061120757611206615f30565b5b60200260200101518860018661121d919061618f565b8151811061122e5761122d615f30565b5b602002602001015188888781811061124957611248615f30565b5b905060200201602081019061125e9190615ff8565b6040518463ffffffff1660e01b815260040161127c939291906161f4565b60206040518083038186803b15801561129457600080fd5b505afa1580156112a8573d6000803e3d6000fd5b505050506040513d601f19601f820116820180604052508101906112cc9190615ad8565b9050600073ffffffffffffffffffffffffffffffffffffffff168173ffffffffffffffffffffffffffffffffffffffff16141561139a57600267ffffffffffffffff81111561131e5761131d6154b3565b5b60405190808252806020026020018201604052801561134c5781602001602082028036833780820191505090505b50925060008360008151811061136557611364615f30565b5b60200260200101818152505060008360018151811061138757611386615f30565b5b6020026020010181815250505050611466565b5080806113a69061622b565b9150506111a1565b5073__$29cd54def7ac870639746274e39943fa8d$__6371847da87f0000000000000000000000000000000000000000000000000000000000000000878787876040518663ffffffff1660e01b815260040161140e9594939291906162fa565b60006040518083038186803b15801561142657600080fd5b505af415801561143a573d6000803e3d6000fd5b505050506040513d6000823e3d601f19601f820116820180604052508101906114639190615ee7565b90505b949350505050565b60006114a0887f00000000000000000000000000000000000000000000000000000000000000008989898930896133ed565b90508091505061153988848a73ffffffffffffffffffffffffffffffffffffffff166370a08231306040518263ffffffff1660e01b81526004016114e491906156fe565b60206040518083038186803b1580156114fc57600080fd5b505afa158015611510573d6000803e3d6000fd5b505050506040513d601f19601f820116820180604052508101906115349190615ba8565b61428c565b7f000000000000000000000000000000000000000000000000000000000000000073ffffffffffffffffffffffffffffffffffffffff16632e1a7d4d826040518263ffffffff1660e01b81526004016115929190615681565b600060405180830381600087803b1580156115ac57600080fd5b505af11580156115c0573d6000803e3d6000fd5b505050506115ce8382613c02565b979650505050505050565b60007f000000000000000000000000000000000000000000000000000000000000000073ffffffffffffffffffffffffffffffffffffffff166335a54e068585856040518463ffffffff1660e01b8152600401611638939291906161f4565b60206040518083038186803b15801561165057600080fd5b505afa158015611664573d6000803e3d6000fd5b505050506040513d601f19601f820116820180604052508101906116889190615ad8565b90509392505050565b600061169f858585856143c2565b9050949350505050565b60606002845110156116f0576040517f08c379a00000000000000000000000000000000000000000000000000000000081526004016116e79061616f565b60405180910390fd5b60005b600185516117019190615c04565b8110156119005760007f000000000000000000000000000000000000000000000000000000000000000073ffffffffffffffffffffffffffffffffffffffff166335a54e0687848151811061175957611758615f30565b5b60200260200101518860018661176f919061618f565b815181106117805761177f615f30565b5b602002602001015188888781811061179b5761179a615f30565b5b90506020020160208101906117b09190615ff8565b6040518463ffffffff1660e01b81526004016117ce939291906161f4565b60206040518083038186803b1580156117e657600080fd5b505afa1580156117fa573d6000803e3d6000fd5b505050506040513d601f19601f8201168201806040525081019061181e9190615ad8565b9050600073ffffffffffffffffffffffffffffffffffffffff168173ffffffffffffffffffffffffffffffffffffffff1614156118ec57600267ffffffffffffffff8111156118705761186f6154b3565b5b60405190808252806020026020018201604052801561189e5781602001602082028036833780820191505090505b5092506000836000815181106118b7576118b6615f30565b5b6020026020010181815250506000836001815181106118d9576118d8615f30565b5b6020026020010181815250505050611931565b5080806118f89061622b565b9150506116f3565b5061192e7f0000000000000000000000000000000000000000000000000000000000000000868686866140af565b90505b949350505050565b6000807f000000000000000000000000000000000000000000000000000000000000000073ffffffffffffffffffffffffffffffffffffffff166335a54e068686866040518463ffffffff1660e01b8152600401611999939291906161f4565b60206040518083038186803b1580156119b157600080fd5b505afa1580156119c5573d6000803e3d6000fd5b505050506040513d601f19601f820116820180604052508101906119e99190615ad8565b9050600073ffffffffffffffffffffffffffffffffffffffff168173ffffffffffffffffffffffffffffffffffffffff1614611a6257600080611a4e7f00000000000000000000000000000000000000000000000000000000000000008888886144dc565b91509150611a5d8883836145f0565b935050505b50949350505050565b60608142811015611ab1576040517f08c379a0000000000000000000000000000000000000000000000000000000008152600401611aa890615a40565b60405180910390fd5b611b1f7f00000000000000000000000000000000000000000000000000000000000000008b8a8a80806020026020016040519081016040528093929190818152602001838360200280828437600081840152601f19601f8201169050808301925050505050505089896140af565b9150888260018451611b319190615c04565b81518110611b4257611b41615f30565b5b60200260200101511015611b8b576040517f08c379a0000000000000000000000000000000000000000000000000000000008152600401611b8290616103565b60405180910390fd5b611cfe88886000818110611ba257611ba1615f30565b5b9050602002016020810190611bb79190615fcb565b3373__$29cd54def7ac870639746274e39943fa8d$__633d220cdf7f00000000000000000000000000000000000000000000000000000000000000008d8d6000818110611c0757611c06615f30565b5b9050602002016020810190611c1c9190615fcb565b8e8e6001818110611c3057611c2f615f30565b5b9050602002016020810190611c459190615fcb565b8d8d6000818110611c5957611c58615f30565b5b9050602002016020810190611c6e9190615ff8565b6040518563ffffffff1660e01b8152600401611c8d9493929190615a7e565b60206040518083038186803b158015611ca557600080fd5b505af4158015611cb9573d6000803e3d6000fd5b505050506040513d601f19601f82011682018060405250810190611cdd9190615ad8565b85600081518110611cf157611cf0615f30565b5b6020026020010151613ac9565b611d4c82898980806020026020016040519081016040528093929190818152602001838360200280828437600081840152601f19601f82011690508083019250505050505050888888613d02565b5098975050505050505050565b8042811015611d9d576040517f08c379a0000000000000000000000000000000000000000000000000000000008152600401611d9490615a40565b60405180910390fd5b611ef587876000818110611db457611db3615f30565b5b9050602002016020810190611dc99190615fcb565b3373__$29cd54def7ac870639746274e39943fa8d$__633d220cdf7f00000000000000000000000000000000000000000000000000000000000000008c8c6000818110611e1957611e18615f30565b5b9050602002016020810190611e2e9190615fcb565b8d8d6001818110611e4257611e41615f30565b5b9050602002016020810190611e579190615fcb565b8c8c6000818110611e6b57611e6a615f30565b5b9050602002016020810190611e809190615ff8565b6040518563ffffffff1660e01b8152600401611e9f9493929190615a7e565b60206040518083038186803b158015611eb757600080fd5b505af4158015611ecb573d6000803e3d6000fd5b505050506040513d601f19601f82011682018060405250810190611eef9190615ad8565b8c613ac9565b6000878760018a8a9050611f099190615c04565b818110611f1957611f18615f30565b5b9050602002016020810190611f2e9190615fcb565b73ffffffffffffffffffffffffffffffffffffffff166370a08231856040518263ffffffff1660e01b8152600401611f6691906156fe565b60206040518083038186803b158015611f7e57600080fd5b505afa158015611f92573d6000803e3d6000fd5b505050506040513d601f19601f82011682018060405250810190611fb69190615ba8565b9050612045888880806020026020016040519081016040528093929190818152602001838360200280828437600081840152601f19601f82011690508083019250505050505050878780806020026020016040519081016040528093929190818152602001838360200280828437600081840152601f19601f82011690508083019250505050505050866146aa565b8881898960018c8c90506120599190615c04565b81811061206957612068615f30565b5b905060200201602081019061207e9190615fcb565b73ffffffffffffffffffffffffffffffffffffffff166370a08231876040518263ffffffff1660e01b81526004016120b691906156fe565b60206040518083038186803b1580156120ce57600080fd5b505afa1580156120e2573d6000803e3d6000fd5b505050506040513d601f19601f820116820180604052508101906121069190615ba8565b6121109190615c04565b1015612151576040517f08c379a0000000000000000000000000000000000000000000000000000000008152600401612148906163c1565b60405180910390fd5b50505050505050505050565b606081428110156121a3576040517f08c379a000000000000000000000000000000000000000000000000000000000815260040161219a90615a40565b60405180910390fd5b7f000000000000000000000000000000000000000000000000000000000000000073ffffffffffffffffffffffffffffffffffffffff16888860018b8b90506121ec9190615c04565b8181106121fc576121fb615f30565b5b90506020020160208101906122119190615fcb565b73ffffffffffffffffffffffffffffffffffffffff1614612267576040517f08c379a000000000000000000000000000000000000000000000000000000000815260040161225e90616071565b60405180910390fd5b73__$29cd54def7ac870639746274e39943fa8d$__6371847da87f00000000000000000000000000000000000000000000000000000000000000008c8b8b8b8b6040518763ffffffff1660e01b81526004016122c896959493929190615dcd565b60006040518083038186803b1580156122e057600080fd5b505af41580156122f4573d6000803e3d6000fd5b505050506040513d6000823e3d601f19601f8201168201806040525081019061231d9190615ee7565b9150888260008151811061233457612333615f30565b5b6020026020010151111561237d576040517f08c379a000000000000000000000000000000000000000000000000000000000815260040161237490615fab565b60405180910390fd5b6124f08888600081811061239457612393615f30565b5b90506020020160208101906123a99190615fcb565b3373__$29cd54def7ac870639746274e39943fa8d$__633d220cdf7f00000000000000000000000000000000000000000000000000000000000000008d8d60008181106123f9576123f8615f30565b5b905060200201602081019061240e9190615fcb565b8e8e600181811061242257612421615f30565b5b90506020020160208101906124379190615fcb565b8d8d600081811061244b5761244a615f30565b5b90506020020160208101906124609190615ff8565b6040518563ffffffff1660e01b815260040161247f9493929190615a7e565b60206040518083038186803b15801561249757600080fd5b505af41580156124ab573d6000803e3d6000fd5b505050506040513d601f19601f820116820180604052508101906124cf9190615ad8565b856000815181106124e3576124e2615f30565b5b6020026020010151613ac9565b61253e82898980806020026020016040519081016040528093929190818152602001838360200280828437600081840152601f19601f82011690508083019250505050505050888830613d02565b7f000000000000000000000000000000000000000000000000000000000000000073ffffffffffffffffffffffffffffffffffffffff16632e1a7d4d83600185516125899190615c04565b8151811061259a57612599615f30565b5b60200260200101516040518263ffffffff1660e01b81526004016125be9190615681565b600060405180830381600087803b1580156125d857600080fd5b505af11580156125ec573d6000803e3d6000fd5b505050506126218483600185516126039190615c04565b8151811061261457612613615f30565b5b6020026020010151613c02565b5098975050505050505050565b8042811015612672576040517f08c379a000000000000000000000000000000000000000000000000000000000815260040161266990615a40565b60405180910390fd5b7f000000000000000000000000000000000000000000000000000000000000000073ffffffffffffffffffffffffffffffffffffffff16878760008181106126bd576126bc615f30565b5b90506020020160208101906126d29190615fcb565b73ffffffffffffffffffffffffffffffffffffffff1614612728576040517f08c379a000000000000000000000000000000000000000000000000000000000815260040161271f9061642d565b60405180910390fd5b60003490507f000000000000000000000000000000000000000000000000000000000000000073ffffffffffffffffffffffffffffffffffffffff1663d0e30db0826040518263ffffffff1660e01b81526004016000604051808303818588803b15801561279557600080fd5b505af11580156127a9573d6000803e3d6000fd5b50505050507f000000000000000000000000000000000000000000000000000000000000000073ffffffffffffffffffffffffffffffffffffffff1663a9059cbb73__$29cd54def7ac870639746274e39943fa8d$__633d220cdf7f00000000000000000000000000000000000000000000000000000000000000008c8c600081811061283957612838615f30565b5b905060200201602081019061284e9190615fcb565b8d8d600181811061286257612861615f30565b5b90506020020160208101906128779190615fcb565b8c8c600081811061288b5761288a615f30565b5b90506020020160208101906128a09190615ff8565b6040518563ffffffff1660e01b81526004016128bf9493929190615a7e565b60206040518083038186803b1580156128d757600080fd5b505af41580156128eb573d6000803e3d6000fd5b505050506040513d601f19601f8201168201806040525081019061290f9190615ad8565b836040518363ffffffff1660e01b815260040161292d929190615b05565b602060405180830381600087803b15801561294757600080fd5b505af115801561295b573d6000803e3d6000fd5b505050506040513d601f19601f8201168201806040525081019061297f9190615b66565b61298c5761298b614f81565b5b6000888860018b8b90506129a09190615c04565b8181106129b0576129af615f30565b5b90506020020160208101906129c59190615fcb565b73ffffffffffffffffffffffffffffffffffffffff166370a08231866040518263ffffffff1660e01b81526004016129fd91906156fe565b60206040518083038186803b158015612a1557600080fd5b505afa158015612a29573d6000803e3d6000fd5b505050506040513d601f19601f82011682018060405250810190612a4d9190615ba8565b9050612adc898980806020026020016040519081016040528093929190818152602001838360200280828437600081840152601f19601f82011690508083019250505050505050888880806020026020016040519081016040528093929190818152602001838360200280828437600081840152601f19601f82011690508083019250505050505050876146aa565b89818a8a60018d8d9050612af09190615c04565b818110612b0057612aff615f30565b5b9050602002016020810190612b159190615fcb565b73ffffffffffffffffffffffffffffffffffffffff166370a08231886040518263ffffffff1660e01b8152600401612b4d91906156fe565b60206040518083038186803b158015612b6557600080fd5b505afa158015612b79573d6000803e3d6000fd5b505050506040513d601f19601f82011682018060405250810190612b9d9190615ba8565b612ba79190615c04565b1015612be8576040517f08c379a0000000000000000000000000000000000000000000000000000000008152600401612bdf906163c1565b60405180910390fd5b50505050505050505050565b6000612c0285858585614b98565b9050949350505050565b6000612c198484846145f0565b90509392505050565b8042811015612c66576040517f08c379a0000000000000000000000000000000000000000000000000000000008152600401612c5d90615a40565b60405180910390fd5b7f000000000000000000000000000000000000000000000000000000000000000073ffffffffffffffffffffffffffffffffffffffff16878760018a8a9050612caf9190615c04565b818110612cbf57612cbe615f30565b5b9050602002016020810190612cd49190615fcb565b73ffffffffffffffffffffffffffffffffffffffff1614612d2a576040517f08c379a0000000000000000000000000000000000000000000000000000000008152600401612d219061642d565b60405180910390fd5b612e8287876000818110612d4157612d40615f30565b5b9050602002016020810190612d569190615fcb565b3373__$29cd54def7ac870639746274e39943fa8d$__633d220cdf7f00000000000000000000000000000000000000000000000000000000000000008c8c6000818110612da657612da5615f30565b5b9050602002016020810190612dbb9190615fcb565b8d8d6001818110612dcf57612dce615f30565b5b9050602002016020810190612de49190615fcb565b8c8c6000818110612df857612df7615f30565b5b9050602002016020810190612e0d9190615ff8565b6040518563ffffffff1660e01b8152600401612e2c9493929190615a7e565b60206040518083038186803b158015612e4457600080fd5b505af4158015612e58573d6000803e3d6000fd5b505050506040513d601f19601f82011682018060405250810190612e7c9190615ad8565b8c613ac9565b612f0f878780806020026020016040519081016040528093929190818152602001838360200280828437600081840152601f19601f82011690508083019250505050505050868680806020026020016040519081016040528093929190818152602001838360200280828437600081840152601f19601f82011690508083019250505050505050306146aa565b60007f000000000000000000000000000000000000000000000000000000000000000073ffffffffffffffffffffffffffffffffffffffff166370a08231306040518263ffffffff1660e01b8152600401612f6a91906156fe565b60206040518083038186803b158015612f8257600080fd5b505afa158015612f96573d6000803e3d6000fd5b505050506040513d601f19601f82011682018060405250810190612fba9190615ba8565b905088811015612fff576040517f08c379a0000000000000000000000000000000000000000000000000000000008152600401612ff6906163c1565b60405180910390fd5b7f000000000000000000000000000000000000000000000000000000000000000073ffffffffffffffffffffffffffffffffffffffff16632e1a7d4d826040518263ffffffff1660e01b81526004016130589190615681565b600060405180830381600087803b15801561307257600080fd5b505af1158015613086573d6000803e3d6000fd5b505050506130948482613c02565b50505050505050505050565b60008082428110156130e7576040517f08c379a00000000000000000000000000000000000000000000000000000000081526004016130de90615a40565b60405180910390fd5b6131178a7f00000000000000000000000000000000000000000000000000000000000000008b8b8b8b308b6133ed565b809350819450505061312a8a868561428c565b7f000000000000000000000000000000000000000000000000000000000000000073ffffffffffffffffffffffffffffffffffffffff16632e1a7d4d836040518263ffffffff1660e01b81526004016131839190615681565b600060405180830381600087803b15801561319d57600080fd5b505af11580156131b1573d6000803e3d6000fd5b505050506131bf8583613c02565b5097509795505050505050565b7f000000000000000000000000000000000000000000000000000000000000000081565b7f000000000000000000000000000000000000000000000000000000000000000081565b6000806000834281101561325d576040517f08c379a000000000000000000000000000000000000000000000000000000000815260040161325490615a40565b60405180910390fd5b61326c8d8d8d8d8d8d8d6136f2565b809450819550505060008d905060008d905060008d9050600073__$29cd54def7ac870639746274e39943fa8d$__633d220cdf7f00000000000000000000000000000000000000000000000000000000000000008686866040518563ffffffff1660e01b81526004016132e29493929190615a7e565b60206040518083038186803b1580156132fa57600080fd5b505af415801561330e573d6000803e3d6000fd5b505050506040513d601f19601f820116820180604052508101906133329190615ad8565b90506133408433838b613ac9565b61334c8333838a613ac9565b8073ffffffffffffffffffffffffffffffffffffffff16636a6278428b6040518263ffffffff1660e01b815260040161338591906156fe565b602060405180830381600087803b15801561339f57600080fd5b505af11580156133b3573d6000803e3d6000fd5b505050506040513d601f19601f820116820180604052508101906133d79190615ba8565b9550505050505099509950999650505050505050565b6000808242811015613434576040517f08c379a000000000000000000000000000000000000000000000000000000000815260040161342b90615a40565b60405180910390fd5b600073__$29cd54def7ac870639746274e39943fa8d$__633d220cdf7f00000000000000000000000000000000000000000000000000000000000000008e8e8e6040518563ffffffff1660e01b81526004016134939493929190615a7e565b60206040518083038186803b1580156134ab57600080fd5b505af41580156134bf573d6000803e3d6000fd5b505050506040513d601f19601f820116820180604052508101906134e39190615ad8565b90508073ffffffffffffffffffffffffffffffffffffffff166323b872dd33838c6040518463ffffffff1660e01b81526004016135229392919061644d565b602060405180830381600087803b15801561353c57600080fd5b505af1158015613550573d6000803e3d6000fd5b505050506040513d601f19601f820116820180604052508101906135749190615b66565b506000808273ffffffffffffffffffffffffffffffffffffffff166389afcb44896040518263ffffffff1660e01b81526004016135b191906156fe565b6040805180830381600087803b1580156135ca57600080fd5b505af11580156135de573d6000803e3d6000fd5b505050506040513d601f19601f820116820180604052508101906136029190616484565b9150915060006136128f8f614cbf565b5090508073ffffffffffffffffffffffffffffffffffffffff168f73ffffffffffffffffffffffffffffffffffffffff161461364f578183613652565b82825b80975081985050508a87101561369d576040517f08c379a000000000000000000000000000000000000000000000000000000000815260040161369490616510565b60405180910390fd5b898610156136e0576040517f08c379a00000000000000000000000000000000000000000000000000000000081526004016136d79061657c565b60405180910390fd5b50505050509850989650505050505050565b600080600073ffffffffffffffffffffffffffffffffffffffff167f000000000000000000000000000000000000000000000000000000000000000073ffffffffffffffffffffffffffffffffffffffff166335a54e068b8b8b6040518463ffffffff1660e01b815260040161376a939291906161f4565b60206040518083038186803b15801561378257600080fd5b505afa158015613796573d6000803e3d6000fd5b505050506040513d601f19601f820116820180604052508101906137ba9190615ad8565b73ffffffffffffffffffffffffffffffffffffffff161415613887577f000000000000000000000000000000000000000000000000000000000000000073ffffffffffffffffffffffffffffffffffffffff16638d22cf548a8a8a6040518463ffffffff1660e01b8152600401613833939291906161f4565b602060405180830381600087803b15801561384d57600080fd5b505af1158015613861573d6000803e3d6000fd5b505050506040513d601f19601f820116820180604052508101906138859190615ad8565b505b6000806138b67f00000000000000000000000000000000000000000000000000000000000000008c8c8c6144dc565b915091506000821480156138ca5750600081145b156138de5787878094508195505050613abb565b60003073ffffffffffffffffffffffffffffffffffffffff1663ad615dec8a85856040518463ffffffff1660e01b815260040161391d93929190615145565b60206040518083038186803b15801561393557600080fd5b505afa158015613949573d6000803e3d6000fd5b505050506040513d601f19601f8201168201806040525081019061396d9190615ba8565b90508781116139c857858110156139b9576040517f08c379a00000000000000000000000000000000000000000000000000000000081526004016139b0906165e8565b60405180910390fd5b88818095508196505050613ab9565b60003073ffffffffffffffffffffffffffffffffffffffff1663ad615dec8a85876040518463ffffffff1660e01b8152600401613a0793929190615145565b60206040518083038186803b158015613a1f57600080fd5b505afa158015613a33573d6000803e3d6000fd5b505050506040513d601f19601f82011682018060405250810190613a579190615ba8565b905089811115613a6a57613a69614f81565b5b87811015613aad576040517f08c379a0000000000000000000000000000000000000000000000000000000008152600401613aa490616654565b60405180910390fd5b80898096508197505050505b505b505097509795505050505050565b6000808573ffffffffffffffffffffffffffffffffffffffff166323b872dd868686604051602401613afd9392919061644d565b6040516020818303038152906040529060e01b6020820180517bffffffffffffffffffffffffffffffffffffffffffffffffffffffff8381831617835250505050604051613b4b91906166ee565b6000604051808303816000865af19150503d8060008114613b88576040519150601f19603f3d011682016040523d82523d6000602084013e613b8d565b606091505b5091509150818015613bbb5750600081511480613bba575080806020019051810190613bb99190615b66565b5b5b613bfa576040517f08c379a0000000000000000000000000000000000000000000000000000000008152600401613bf190616777565b60405180910390fd5b505050505050565b60008273ffffffffffffffffffffffffffffffffffffffff1682600067ffffffffffffffff811115613c3757613c366154b3565b5b6040519080825280601f01601f191660200182016040528015613c695781602001600182028036833780820191505090505b50604051613c7791906166ee565b60006040518083038185875af1925050503d8060008114613cb4576040519150601f19603f3d011682016040523d82523d6000602084013e613cb9565b606091505b5050905080613cfd576040517f08c379a0000000000000000000000000000000000000000000000000000000008152600401613cf490616809565b60405180910390fd5b505050565b60005b60018551613d139190615c04565b8110156140a757600080868381518110613d3057613d2f615f30565b5b602002602001015187600185613d46919061618f565b81518110613d5757613d56615f30565b5b6020026020010151915091506000613d6f8383614cbf565b509050600089600186613d82919061618f565b81518110613d9357613d92615f30565b5b602002602001015190506000808373ffffffffffffffffffffffffffffffffffffffff168673ffffffffffffffffffffffffffffffffffffffff1614613ddb57826000613ddf565b6000835b91509150600060028c51613df39190615c04565b8810613dff5788613efa565b73__$29cd54def7ac870639746274e39943fa8d$__633d220cdf7f0000000000000000000000000000000000000000000000000000000000000000888f60028d613e49919061618f565b81518110613e5a57613e59615f30565b5b60200260200101518f8f8e818110613e7557613e74615f30565b5b9050602002016020810190613e8a9190615ff8565b6040518563ffffffff1660e01b8152600401613ea99493929190615a7e565b60206040518083038186803b158015613ec157600080fd5b505af4158015613ed5573d6000803e3d6000fd5b505050506040513d601f19601f82011682018060405250810190613ef99190615ad8565b5b905073__$29cd54def7ac870639746274e39943fa8d$__633d220cdf7f000000000000000000000000000000000000000000000000000000000000000089898f8f8e818110613f4c57613f4b615f30565b5b9050602002016020810190613f619190615ff8565b6040518563ffffffff1660e01b8152600401613f809493929190615a7e565b60206040518083038186803b158015613f9857600080fd5b505af4158015613fac573d6000803e3d6000fd5b505050506040513d601f19601f82011682018060405250810190613fd09190615ad8565b73ffffffffffffffffffffffffffffffffffffffff1663022c0d9f848484600067ffffffffffffffff811115614009576140086154b3565b5b6040519080825280601f01601f19166020018201604052801561403b5781602001600182028036833780820191505090505b506040518563ffffffff1660e01b815260040161405b9493929190616873565b600060405180830381600087803b15801561407557600080fd5b505af1158015614089573d6000803e3d6000fd5b5050505050505050505050808061409f9061622b565b915050613d05565b505050505050565b60606002845110156140f6576040517f08c379a00000000000000000000000000000000000000000000000000000000081526004016140ed9061690b565b60405180910390fd5b835167ffffffffffffffff811115614111576141106154b3565b5b60405190808252806020026020018201604052801561413f5781602001602082028036833780820191505090505b509050848160008151811061415757614156615f30565b5b60200260200101818152505060005b600185516141749190615c04565b811015614282576000806141f18988858151811061419557614194615f30565b5b6020026020010151896001876141ab919061618f565b815181106141bc576141bb615f30565b5b60200260200101518989888181106141d7576141d6615f30565b5b90506020020160208101906141ec9190615ff8565b6144dc565b9150915061424284848151811061420b5761420a615f30565b5b6020026020010151838389898881811061422857614227615f30565b5b905060200201602081019061423d9190615ff8565b6143c2565b84600185614250919061618f565b8151811061426157614260615f30565b5b6020026020010181815250505050808061427a9061622b565b915050614166565b5095945050505050565b6000808473ffffffffffffffffffffffffffffffffffffffff1663a9059cbb85856040516024016142be929190615b05565b6040516020818303038152906040529060e01b6020820180517bffffffffffffffffffffffffffffffffffffffffffffffffffffffff838183161783525050505060405161430c91906166ee565b6000604051808303816000865af19150503d8060008114614349576040519150601f19603f3d011682016040523d82523d6000602084013e61434e565b606091505b509150915081801561437c575060008151148061437b57508080602001905181019061437a9190615b66565b5b5b6143bb576040517f08c379a00000000000000000000000000000000000000000000000000000000081526004016143b29061699d565b60405180910390fd5b5050505050565b6000808511614406576040517f08c379a00000000000000000000000000000000000000000000000000000000081526004016143fd90616a2f565b60405180910390fd5b6000841180156144165750600083115b614455576040517f08c379a000000000000000000000000000000000000000000000000000000000815260040161444c90616ac1565b60405180910390fd5b600061447e83620186a06144699190616ae1565b63ffffffff1687614ded90919063ffffffff16565b905060006144958583614ded90919063ffffffff16565b905060006144c1836144b3620186a08a614ded90919063ffffffff16565b614e5a90919063ffffffff16565b905080826144cf9190616b44565b9350505050949350505050565b60008060006144eb8686614cbf565b5090506000806144fd89898989614eb3565b73ffffffffffffffffffffffffffffffffffffffff16630902f1ac6040518163ffffffff1660e01b815260040160606040518083038186803b15801561454257600080fd5b505afa158015614556573d6000803e3d6000fd5b505050506040513d601f19601f8201168201806040525081019061457a9190616bd0565b506dffffffffffffffffffffffffffff1691506dffffffffffffffffffffffffffff1691508273ffffffffffffffffffffffffffffffffffffffff168873ffffffffffffffffffffffffffffffffffffffff16146145d95780826145dc565b81815b809550819650505050505094509492505050565b6000808411614634576040517f08c379a000000000000000000000000000000000000000000000000000000000815260040161462b90616c6f565b60405180910390fd5b6000831180156146445750600082115b614683576040517f08c379a000000000000000000000000000000000000000000000000000000000815260040161467a90616ac1565b60405180910390fd5b826146978386614ded90919063ffffffff16565b6146a19190616b44565b90509392505050565b60005b600184516146bb9190615c04565b811015614b925760008060008684815181106146da576146d9615f30565b5b6020026020010151876001866146f0919061618f565b8151811061470157614700615f30565b5b602002602001015187868151811061471c5761471b615f30565b5b602002602001015192509250925060006147368484614cbf565b509050600073__$29cd54def7ac870639746274e39943fa8d$__633d220cdf7f00000000000000000000000000000000000000000000000000000000000000008787876040518563ffffffff1660e01b81526004016147989493929190615a7e565b60206040518083038186803b1580156147b057600080fd5b505af41580156147c4573d6000803e3d6000fd5b505050506040513d601f19601f820116820180604052508101906147e89190615ad8565b90506000806000808473ffffffffffffffffffffffffffffffffffffffff16630902f1ac6040518163ffffffff1660e01b815260040160606040518083038186803b15801561483657600080fd5b505afa15801561484a573d6000803e3d6000fd5b505050506040513d601f19601f8201168201806040525081019061486e9190616bd0565b506dffffffffffffffffffffffffffff1691506dffffffffffffffffffffffffffff1691506000808773ffffffffffffffffffffffffffffffffffffffff168b73ffffffffffffffffffffffffffffffffffffffff16146148d05782846148d3565b83835b91509150818b73ffffffffffffffffffffffffffffffffffffffff166370a08231896040518263ffffffff1660e01b815260040161491191906156fe565b60206040518083038186803b15801561492957600080fd5b505afa15801561493d573d6000803e3d6000fd5b505050506040513d601f19601f820116820180604052508101906149619190615ba8565b61496b9190615c04565b95506149798683838c6143c2565b945050505050600060028c5161498f9190615c04565b891061499b5789614a6f565b73__$29cd54def7ac870639746274e39943fa8d$__633d220cdf7f0000000000000000000000000000000000000000000000000000000000000000898f60028e6149e5919061618f565b815181106149f6576149f5615f30565b5b60200260200101518a6040518563ffffffff1660e01b8152600401614a1e9493929190615a7e565b60206040518083038186803b158015614a3657600080fd5b505af4158015614a4a573d6000803e3d6000fd5b505050506040513d601f19601f82011682018060405250810190614a6e9190615ad8565b5b90506000808673ffffffffffffffffffffffffffffffffffffffff168a73ffffffffffffffffffffffffffffffffffffffff1614614aaf57836000614ab3565b6000845b915091508573ffffffffffffffffffffffffffffffffffffffff1663022c0d9f838386600067ffffffffffffffff811115614af157614af06154b3565b5b6040519080825280601f01601f191660200182016040528015614b235781602001600182028036833780820191505090505b506040518563ffffffff1660e01b8152600401614b439493929190616873565b600060405180830381600087803b158015614b5d57600080fd5b505af1158015614b71573d6000803e3d6000fd5b50505050505050505050505050508080614b8a9061622b565b9150506146ad565b50505050565b6000808511614bdc576040517f08c379a0000000000000000000000000000000000000000000000000000000008152600401614bd390616d01565b60405180910390fd5b600084118015614bec5750600083115b614c2b576040517f08c379a0000000000000000000000000000000000000000000000000000000008152600401614c2290616ac1565b60405180910390fd5b6000614c55620186a0614c478888614ded90919063ffffffff16565b614ded90919063ffffffff16565b90506000614c9284620186a0614c6b9190616ae1565b63ffffffff16614c848988614f2890919063ffffffff16565b614ded90919063ffffffff16565b9050614cb360018284614ca59190616b44565b614e5a90919063ffffffff16565b92505050949350505050565b6000808273ffffffffffffffffffffffffffffffffffffffff168473ffffffffffffffffffffffffffffffffffffffff161415614d31576040517f08c379a0000000000000000000000000000000000000000000000000000000008152600401614d2890616d6d565b60405180910390fd5b8273ffffffffffffffffffffffffffffffffffffffff168473ffffffffffffffffffffffffffffffffffffffff1610614d6b578284614d6e565b83835b8092508193505050600073ffffffffffffffffffffffffffffffffffffffff168273ffffffffffffffffffffffffffffffffffffffff161415614de6576040517f08c379a0000000000000000000000000000000000000000000000000000000008152600401614ddd90616dd9565b60405180910390fd5b9250929050565b600080821480614e15575082828385614e069190616df9565b925082614e139190616b44565b145b614e54576040517f08c379a0000000000000000000000000000000000000000000000000000000008152600401614e4b90616e9f565b60405180910390fd5b92915050565b6000828284614e69919061618f565b9150811015614ead576040517f08c379a0000000000000000000000000000000000000000000000000000000008152600401614ea490616f0b565b60405180910390fd5b92915050565b6000806000614ec28686614cbf565b9150915086828286604051602001614edc93929190616fa9565b60405160208183030381529060405280519060200120604051602001614f039291906170b4565b6040516020818303038152906040528051906020012060001c92505050949350505050565b6000828284614f379190615c04565b9150811115614f7b576040517f08c379a0000000000000000000000000000000000000000000000000000000008152600401614f7290617142565b60405180910390fd5b92915050565b7f4e487b7100000000000000000000000000000000000000000000000000000000600052600160045260246000fd5b6000604051905090565b600080fd5b600080fd5b600073ffffffffffffffffffffffffffffffffffffffff82169050919050565b6000614fef82614fc4565b9050919050565b614fff81614fe4565b811461500a57600080fd5b50565b60008135905061501c81614ff6565b92915050565b600063ffffffff82169050919050565b61503b81615022565b811461504657600080fd5b50565b60008135905061505881615032565b92915050565b6000819050919050565b6150718161505e565b811461507c57600080fd5b50565b60008135905061508e81615068565b92915050565b600080600080600080600060e0888a0312156150b3576150b2614fba565b5b60006150c18a828b0161500d565b97505060206150d28a828b01615049565b96505060406150e38a828b0161507f565b95505060606150f48a828b0161507f565b94505060806151058a828b0161507f565b93505060a06151168a828b0161500d565b92505060c06151278a828b0161507f565b91505092959891949750929550565b61513f8161505e565b82525050565b600060608201905061515a6000830186615136565b6151676020830185615136565b6151746040830184615136565b949350505050565b600080fd5b600080fd5b600080fd5b60008083601f8401126151a1576151a061517c565b5b8235905067ffffffffffffffff8111156151be576151bd615181565b5b6020830191508360208202830111156151da576151d9615186565b5b9250929050565b60008083601f8401126151f7576151f661517c565b5b8235905067ffffffffffffffff81111561521457615213615181565b5b6020830191508360208202830111156152305761522f615186565b5b9250929050565b60008060008060008060008060c0898b03121561525757615256614fba565b5b60006152658b828c0161507f565b98505060206152768b828c0161507f565b975050604089013567ffffffffffffffff81111561529757615296614fbf565b5b6152a38b828c0161518b565b9650965050606089013567ffffffffffffffff8111156152c6576152c5614fbf565b5b6152d28b828c016151e1565b945094505060806152e58b828c0161500d565b92505060a06152f68b828c0161507f565b9150509295985092959890939650565b600081519050919050565b600082825260208201905092915050565b6000819050602082019050919050565b61533b8161505e565b82525050565b600061534d8383615332565b60208301905092915050565b6000602082019050919050565b600061537182615306565b61537b8185615311565b935061538683615322565b8060005b838110156153b757815161539e8882615341565b97506153a983615359565b92505060018101905061538a565b5085935050505092915050565b600060208201905081810360008301526153de8184615366565b905092915050565b600080600080600080600060a0888a03121561540557615404614fba565b5b60006154138a828b0161507f565b975050602088013567ffffffffffffffff81111561543457615433614fbf565b5b6154408a828b0161518b565b9650965050604088013567ffffffffffffffff81111561546357615462614fbf565b5b61546f8a828b016151e1565b945094505060606154828a828b0161500d565b92505060806154938a828b0161507f565b91505092959891949750929550565b6000601f19601f8301169050919050565b7f4e487b7100000000000000000000000000000000000000000000000000000000600052604160045260246000fd5b6154eb826154a2565b810181811067ffffffffffffffff8211171561550a576155096154b3565b5b80604052505050565b600061551d614fb0565b905061552982826154e2565b919050565b600067ffffffffffffffff821115615549576155486154b3565b5b602082029050602081019050919050565b600061556d6155688461552e565b615513565b905080838252602082019050602084028301858111156155905761558f615186565b5b835b818110156155b957806155a5888261500d565b845260208401935050602081019050615592565b5050509392505050565b600082601f8301126155d8576155d761517c565b5b81356155e884826020860161555a565b91505092915050565b6000806000806060858703121561560b5761560a614fba565b5b60006156198782880161507f565b945050602085013567ffffffffffffffff81111561563a57615639614fbf565b5b615646878288016155c3565b935050604085013567ffffffffffffffff81111561566757615666614fbf565b5b615673878288016151e1565b925092505092959194509250565b60006020820190506156966000830184615136565b92915050565b6000806000606084860312156156b5576156b4614fba565b5b60006156c38682870161500d565b93505060206156d48682870161500d565b92505060406156e586828701615049565b9150509250925092565b6156f881614fe4565b82525050565b600060208201905061571360008301846156ef565b92915050565b6000806000806080858703121561573357615732614fba565b5b60006157418782880161507f565b94505060206157528782880161507f565b93505060406157638782880161507f565b925050606061577487828801615049565b91505092959194509250565b6000806000806080858703121561579a57615799614fba565b5b60006157a88782880161507f565b94505060206157b98782880161500d565b93505060406157ca8782880161500d565b92505060606157db87828801615049565b91505092959194509250565b600080600060608486031215615800576157ff614fba565b5b600061580e8682870161507f565b935050602061581f8682870161507f565b92505060406158308682870161507f565b9150509250925092565b600060408201905061584f6000830185615136565b61585c6020830184615136565b9392505050565b60008060008060008060008060006101208a8c03121561588657615885614fba565b5b60006158948c828d0161500d565b99505060206158a58c828d0161500d565b98505060406158b68c828d01615049565b97505060606158c78c828d0161507f565b96505060806158d88c828d0161507f565b95505060a06158e98c828d0161507f565b94505060c06158fa8c828d0161507f565b93505060e061590b8c828d0161500d565b92505061010061591d8c828d0161507f565b9150509295985092959850929598565b600080600080600080600080610100898b03121561594e5761594d614fba565b5b600061595c8b828c0161500d565b985050602061596d8b828c0161500d565b975050604061597e8b828c01615049565b965050606061598f8b828c0161507f565b95505060806159a08b828c0161507f565b94505060a06159b18b828c0161507f565b93505060c06159c28b828c0161500d565b92505060e06159d38b828c0161507f565b9150509295985092959890939650565b600082825260208201905092915050565b7f526f757465723a20455850495245440000000000000000000000000000000000600082015250565b6000615a2a600f836159e3565b9150615a35826159f4565b602082019050919050565b60006020820190508181036000830152615a5981615a1d565b9050919050565b615a6981614fe4565b82525050565b615a7881615022565b82525050565b6000608082019050615a936000830187615a60565b615aa06020830186615a60565b615aad6040830185615a60565b615aba6060830184615a6f565b95945050505050565b600081519050615ad281614ff6565b92915050565b600060208284031215615aee57615aed614fba565b5b6000615afc84828501615ac3565b91505092915050565b6000604082019050615b1a60008301856156ef565b615b276020830184615136565b9392505050565b60008115159050919050565b615b4381615b2e565b8114615b4e57600080fd5b50565b600081519050615b6081615b3a565b92915050565b600060208284031215615b7c57615b7b614fba565b5b6000615b8a84828501615b51565b91505092915050565b600081519050615ba281615068565b92915050565b600060208284031215615bbe57615bbd614fba565b5b6000615bcc84828501615b93565b91505092915050565b7f4e487b7100000000000000000000000000000000000000000000000000000000600052601160045260246000fd5b6000615c0f8261505e565b9150615c1a8361505e565b925082821015615c2d57615c2c615bd5565b5b828203905092915050565b615c418161505e565b82525050565b600082825260208201905092915050565b6000819050919050565b615c6b81614fe4565b82525050565b6000615c7d8383615c62565b60208301905092915050565b6000615c98602084018461500d565b905092915050565b6000602082019050919050565b6000615cb98385615c47565b9350615cc482615c58565b8060005b85811015615cfd57615cda8284615c89565b615ce48882615c71565b9750615cef83615ca0565b925050600181019050615cc8565b5085925050509392505050565b600082825260208201905092915050565b6000819050919050565b615d2e81615022565b82525050565b6000615d408383615d25565b60208301905092915050565b6000615d5b6020840184615049565b905092915050565b6000602082019050919050565b6000615d7c8385615d0a565b9350615d8782615d1b565b8060005b85811015615dc057615d9d8284615d4c565b615da78882615d34565b9750615db283615d63565b925050600181019050615d8b565b5085925050509392505050565b6000608082019050615de26000830189615a60565b615def6020830188615c38565b8181036040830152615e02818688615cad565b90508181036060830152615e17818486615d70565b9050979650505050505050565b600067ffffffffffffffff821115615e3f57615e3e6154b3565b5b602082029050602081019050919050565b6000615e63615e5e84615e24565b615513565b90508083825260208201905060208402830185811115615e8657615e85615186565b5b835b81811015615eaf5780615e9b8882615b93565b845260208401935050602081019050615e88565b5050509392505050565b600082601f830112615ece57615ecd61517c565b5b8151615ede848260208601615e50565b91505092915050565b600060208284031215615efd57615efc614fba565b5b600082015167ffffffffffffffff811115615f1b57615f1a614fbf565b5b615f2784828501615eb9565b91505092915050565b7f4e487b7100000000000000000000000000000000000000000000000000000000600052603260045260246000fd5b7f526f757465723a204558434553534956455f494e5055545f414d4f554e540000600082015250565b6000615f95601e836159e3565b9150615fa082615f5f565b602082019050919050565b60006020820190508181036000830152615fc481615f88565b9050919050565b600060208284031215615fe157615fe0614fba565b5b6000615fef8482850161500d565b91505092915050565b60006020828403121561600e5761600d614fba565b5b600061601c84828501615049565b91505092915050565b7f526f757465723a20494e56414c49445f50415448000000000000000000000000600082015250565b600061605b6014836159e3565b915061606682616025565b602082019050919050565b6000602082019050818103600083015261608a8161604e565b9050919050565b7f526f757465723a20494e53554646494349454e545f4f55545055545f414d4f5560008201527f4e54000000000000000000000000000000000000000000000000000000000000602082015250565b60006160ed6022836159e3565b91506160f882616091565b604082019050919050565b6000602082019050818103600083015261611c816160e0565b9050919050565b7f494e56414c49445f504154480000000000000000000000000000000000000000600082015250565b6000616159600c836159e3565b915061616482616123565b602082019050919050565b600060208201905081810360008301526161888161614c565b9050919050565b600061619a8261505e565b91506161a58361505e565b9250827fffffffffffffffffffffffffffffffffffffffffffffffffffffffffffffffff038211156161da576161d9615bd5565b5b828201905092915050565b6161ee81615022565b82525050565b600060608201905061620960008301866156ef565b61621660208301856156ef565b61622360408301846161e5565b949350505050565b60006162368261505e565b91507fffffffffffffffffffffffffffffffffffffffffffffffffffffffffffffffff82141561626957616268615bd5565b5b600182019050919050565b600081519050919050565b6000819050602082019050919050565b6000602082019050919050565b60006162a782616274565b6162b18185615c47565b93506162bc8361627f565b8060005b838110156162ed5781516162d48882615c71565b97506162df8361628f565b9250506001810190506162c0565b5085935050505092915050565b600060808201905061630f6000830188615a60565b61631c6020830187615c38565b818103604083015261632e818661629c565b90508181036060830152616343818486615d70565b90509695505050505050565b7f526f7574657256323a20494e53554646494349454e545f4f55545055545f414d60008201527f4f554e5400000000000000000000000000000000000000000000000000000000602082015250565b60006163ab6024836159e3565b91506163b68261634f565b604082019050919050565b600060208201905081810360008301526163da8161639e565b9050919050565b7f526f7574657256323a20494e56414c49445f5041544800000000000000000000600082015250565b60006164176016836159e3565b9150616422826163e1565b602082019050919050565b600060208201905081810360008301526164468161640a565b9050919050565b600060608201905061646260008301866156ef565b61646f60208301856156ef565b61647c6040830184615136565b949350505050565b6000806040838503121561649b5761649a614fba565b5b60006164a985828601615b93565b92505060206164ba85828601615b93565b9150509250929050565b7f526f757465723a20494e53554646494349454e545f415f414d4f554e54000000600082015250565b60006164fa601d836159e3565b9150616505826164c4565b602082019050919050565b60006020820190508181036000830152616529816164ed565b9050919050565b7f526f757465723a20494e53554646494349454e545f425f414d4f554e54000000600082015250565b6000616566601d836159e3565b915061657182616530565b602082019050919050565b6000602082019050818103600083015261659581616559565b9050919050565b7f526f757465723a20494e53554646494349454e54204220414d4f554e54000000600082015250565b60006165d2601d836159e3565b91506165dd8261659c565b602082019050919050565b60006020820190508181036000830152616601816165c5565b9050919050565b7f526f757465723a20494e53554646494349454e54204120414d4f554e54000000600082015250565b600061663e601d836159e3565b915061664982616608565b602082019050919050565b6000602082019050818103600083015261666d81616631565b9050919050565b600081519050919050565b600081905092915050565b60005b838110156166a857808201518184015260208101905061668d565b838111156166b7576000848401525b50505050565b60006166c882616674565b6166d2818561667f565b93506166e281856020860161668a565b80840191505092915050565b60006166fa82846166bd565b915081905092915050565b7f526f757465723a3a7472616e7366657246726f6d3a207472616e73666572467260008201527f6f6d206661696c65640000000000000000000000000000000000000000000000602082015250565b60006167616029836159e3565b915061676c82616705565b604082019050919050565b6000602082019050818103600083015261679081616754565b9050919050565b7f526f757465723a3a736166655472616e736665724e61746976653a204e61746960008201527f7665207472616e73666572206661696c65640000000000000000000000000000602082015250565b60006167f36032836159e3565b91506167fe82616797565b604082019050919050565b60006020820190508181036000830152616822816167e6565b9050919050565b600082825260208201905092915050565b600061684582616674565b61684f8185616829565b935061685f81856020860161668a565b616868816154a2565b840191505092915050565b60006080820190506168886000830187615136565b6168956020830186615136565b6168a260408301856156ef565b81810360608301526168b4818461683a565b905095945050505050565b7f4445584c6962726172793a20494e56414c49445f504154480000000000000000600082015250565b60006168f56018836159e3565b9150616900826168bf565b602082019050919050565b60006020820190508181036000830152616924816168e8565b9050919050565b7f526f757465723a3a736166655472616e736665723a207472616e73666572206660008201527f61696c6564000000000000000000000000000000000000000000000000000000602082015250565b60006169876025836159e3565b91506169928261692b565b604082019050919050565b600060208201905081810360008301526169b68161697a565b9050919050565b7f4445584c6962726172793a20494e53554646494349454e545f494e5055545f4160008201527f4d4f554e54000000000000000000000000000000000000000000000000000000602082015250565b6000616a196025836159e3565b9150616a24826169bd565b604082019050919050565b60006020820190508181036000830152616a4881616a0c565b9050919050565b7f4445584c6962726172793a20494e53554646494349454e545f4c49515549444960008201527f5459000000000000000000000000000000000000000000000000000000000000602082015250565b6000616aab6022836159e3565b9150616ab682616a4f565b604082019050919050565b60006020820190508181036000830152616ada81616a9e565b9050919050565b6000616aec82615022565b9150616af783615022565b925082821015616b0a57616b09615bd5565b5b828203905092915050565b7f4e487b7100000000000000000000000000000000000000000000000000000000600052601260045260246000fd5b6000616b4f8261505e565b9150616b5a8361505e565b925082616b6a57616b69616b15565b5b828204905092915050565b60006dffffffffffffffffffffffffffff82169050919050565b616b9881616b75565b8114616ba357600080fd5b50565b600081519050616bb581616b8f565b92915050565b600081519050616bca81615032565b92915050565b600080600060608486031215616be957616be8614fba565b5b6000616bf786828701616ba6565b9350506020616c0886828701616ba6565b9250506040616c1986828701616bbb565b9150509250925092565b7f4445584c6962726172793a20494e53554646494349454e545f414d4f554e5400600082015250565b6000616c59601f836159e3565b9150616c6482616c23565b602082019050919050565b60006020820190508181036000830152616c8881616c4c565b9050919050565b7f4445584c6962726172793a20494e53554646494349454e545f4f55545055545f60008201527f414d4f554e540000000000000000000000000000000000000000000000000000602082015250565b6000616ceb6026836159e3565b9150616cf682616c8f565b604082019050919050565b60006020820190508181036000830152616d1a81616cde565b9050919050565b7f4445584c6962726172793a204944454e544943414c5f41444452455353455300600082015250565b6000616d57601f836159e3565b9150616d6282616d21565b602082019050919050565b60006020820190508181036000830152616d8681616d4a565b9050919050565b7f4445584c6962726172793a205a45524f5f414444524553530000000000000000600082015250565b6000616dc36018836159e3565b9150616dce82616d8d565b602082019050919050565b60006020820190508181036000830152616df281616db6565b9050919050565b6000616e048261505e565b9150616e0f8361505e565b9250817fffffffffffffffffffffffffffffffffffffffffffffffffffffffffffffffff0483118215151615616e4857616e47615bd5565b5b828202905092915050565b7f64732d6d6174682d6d756c2d6f766572666c6f77000000000000000000000000600082015250565b6000616e896014836159e3565b9150616e9482616e53565b602082019050919050565b60006020820190508181036000830152616eb881616e7c565b9050919050565b7f64732d6d6174682d6164642d6f766572666c6f77000000000000000000000000600082015250565b6000616ef56014836159e3565b9150616f0082616ebf565b602082019050919050565b60006020820190508181036000830152616f2481616ee8565b9050919050565b60008160601b9050919050565b6000616f4382616f2b565b9050919050565b6000616f5582616f38565b9050919050565b616f6d616f6882614fe4565b616f4a565b82525050565b60008160e01b9050919050565b6000616f8b82616f73565b9050919050565b616fa3616f9e82615022565b616f80565b82525050565b6000616fb58286616f5c565b601482019150616fc58285616f5c565b601482019150616fd58284616f92565b600482019150819050949350505050565b600081905092915050565b7fff00000000000000000000000000000000000000000000000000000000000000600082015250565b6000617027600183616fe6565b915061703282616ff1565b600182019050919050565b6000819050919050565b6000819050919050565b61706261705d8261703d565b617047565b82525050565b7f4865ea389995915db67b44b39fd00c73c081158e770991b408389498fb8dc480600082015250565b600061709e602083616fe6565b91506170a982617068565b602082019050919050565b60006170bf8261701a565b91506170cb8285616f5c565b6014820191506170db8284617051565b6020820191506170ea82617091565b91508190509392505050565b7f64732d6d6174682d7375622d756e646572666c6f770000000000000000000000600082015250565b600061712c6015836159e3565b9150617137826170f6565b602082019050919050565b6000602082019050818103600083015261715b8161711f565b905091905056fea2646970667358221220af0418067647e86c721a3e28f63d5716de5312880e1e20fcb6658f24f0fc981364736f6c63430008090033",
  "linkReferences": {
    "contracts/router/libraries/DEXLibrary.sol": {
      "DEXLibrary": [
        {
          "length": 20,
          "start": 2412
        },
        {
          "length": 20,
          "start": 3202
        },
        {
          "length": 20,
          "start": 3525
        },
        {
          "length": 20,
          "start": 4628
        },
        {
          "length": 20,
          "start": 5763
        },
        {
          "length": 20,
          "start": 7820
        },
        {
          "length": 20,
          "start": 8350
        },
        {
          "length": 20,
          "start": 9531
        },
        {
          "length": 20,
          "start": 9854
        },
        {
          "length": 20,
          "start": 10942
        },
        {
          "length": 20,
          "start": 12331
        },
        {
          "length": 20,
          "start": 13657
        },
        {
          "length": 20,
          "start": 14090
        },
        {
          "length": 20,
          "start": 16595
        },
        {
          "length": 20,
          "start": 16848
        },
        {
          "length": 20,
          "start": 18959
        },
        {
          "length": 20,
          "start": 19567
        }
      ]
    }
  },
  "deployedLinkReferences": {
    "contracts/router/libraries/DEXLibrary.sol": {
      "DEXLibrary": [
        {
          "length": 20,
          "start": 1690
        },
        {
          "length": 20,
          "start": 2480
        },
        {
          "length": 20,
          "start": 2803
        },
        {
          "length": 20,
          "start": 3906
        },
        {
          "length": 20,
          "start": 5041
        },
        {
          "length": 20,
          "start": 7098
        },
        {
          "length": 20,
          "start": 7628
        },
        {
          "length": 20,
          "start": 8809
        },
        {
          "length": 20,
          "start": 9132
        },
        {
          "length": 20,
          "start": 10220
        },
        {
          "length": 20,
          "start": 11609
        },
        {
          "length": 20,
          "start": 12935
        },
        {
          "length": 20,
          "start": 13368
        },
        {
          "length": 20,
          "start": 15873
        },
        {
          "length": 20,
          "start": 16126
        },
        {
          "length": 20,
          "start": 18237
        },
        {
          "length": 20,
          "start": 18845
        }
      ]
    }
  }
}