{
  "_format": "hh-sol-artifact-1",
  "contractName": "DEXLibrary",
  "sourceName": "contracts/router/libraries/DEXLibrary.sol",
  "abi": [
    {
      "inputs": [
        {
          "internalType": "address",
          "name": "factory",
          "type": "address"
        },
        {
          "internalType": "uint256",
          "name": "amountOut",
          "type": "uint256"
        },
        {
          "internalType": "address[]",
          "name": "path",
          "type": "address[]"
        },
        {
          "internalType": "uint32[]",
          "name": "feePath",
          "type": "uint32[]"
        }
      ],
      "name": "getAmountsIn",
      "outputs": [
        {
          "internalType": "uint256[]",
          "name": "amounts",
          "type": "uint256[]"
        }
      ],
      "stateMutability": "view",
      "type": "function"
    },
    {
      "inputs": [
        {
          "internalType": "address",
          "name": "factory",
          "type": "address"
        },
        {
          "internalType": "address",
          "name": "tokenA",
          "type": "address"
        },
        {
          "internalType": "address",
          "name": "tokenB",
          "type": "address"
        },
        {
          "internalType": "uint32",
          "name": "poolFee",
          "type": "uint32"
        }
      ],
      "name": "pairFor",
      "outputs": [
        {
          "internalType": "address",
          "name": "pair",
          "type": "address"
        }
      ],
      "stateMutability": "pure",
      "type": "function"
    }
  ],
  "bytecode": "0x6114ed610053600b82828239805160001a607314610046577f4e487b7100000000000000000000000000000000000000000000000000000000600052600060045260246000fd5b30600052607381538281f3fe73000000000000000000000000000000000000000030146080604052600436106100405760003560e01c80633d220cdf1461004557806371847da814610075575b600080fd5b61005f600480360381019061005a9190610855565b6100a5565b60405161006c91906108cb565b60405180910390f35b61008f600480360381019061008a9190610ad0565b61011a565b60405161009c9190610c32565b60405180910390f35b60008060006100b4868661031f565b91509150868282866040516020016100ce93929190610cd2565b604051602081830303815290604052805190602001206040516020016100f5929190610ddd565b6040516020818303038152906040528051906020012060001c92505050949350505050565b6060600284511015610161576040517f08c379a000000000000000000000000000000000000000000000000000000000815260040161015890610e7c565b60405180910390fd5b835167ffffffffffffffff81111561017c5761017b610932565b5b6040519080825280602002602001820160405280156101aa5781602001602082028036833780820191505090505b5090508481600183516101bd9190610ecb565b815181106101ce576101cd610eff565b5b6020026020010181815250506000600185516101ea9190610ecb565b90505b600081111561031557600080610278898860018661020b9190610ecb565b8151811061021c5761021b610eff565b5b602002602001015189868151811061023757610236610eff565b5b6020026020010151898960018961024e9190610ecb565b81811061025e5761025d610eff565b5b90506020020160208101906102739190610f2e565b61044d565b915091506102d584848151811061029257610291610eff565b5b6020026020010151838389896001896102ab9190610ecb565b8181106102bb576102ba610eff565b5b90506020020160208101906102d09190610f2e565b610561565b846001856102e39190610ecb565b815181106102f4576102f3610eff565b5b6020026020010181815250505050808061030d90610f5b565b9150506101ed565b5095945050505050565b6000808273ffffffffffffffffffffffffffffffffffffffff168473ffffffffffffffffffffffffffffffffffffffff161415610391576040517f08c379a000000000000000000000000000000000000000000000000000000000815260040161038890610fd1565b60405180910390fd5b8273ffffffffffffffffffffffffffffffffffffffff168473ffffffffffffffffffffffffffffffffffffffff16106103cb5782846103ce565b83835b8092508193505050600073ffffffffffffffffffffffffffffffffffffffff168273ffffffffffffffffffffffffffffffffffffffff161415610446576040517f08c379a000000000000000000000000000000000000000000000000000000000815260040161043d9061103d565b60405180910390fd5b9250929050565b600080600061045c868661031f565b50905060008061046e898989896100a5565b73ffffffffffffffffffffffffffffffffffffffff16630902f1ac6040518163ffffffff1660e01b815260040160606040518083038186803b1580156104b357600080fd5b505afa1580156104c7573d6000803e3d6000fd5b505050506040513d601f19601f820116820180604052508101906104eb91906110b8565b506dffffffffffffffffffffffffffff1691506dffffffffffffffffffffffffffff1691508273ffffffffffffffffffffffffffffffffffffffff168873ffffffffffffffffffffffffffffffffffffffff161461054a57808261054d565b81815b809550819650505050505094509492505050565b60008085116105a5576040517f08c379a000000000000000000000000000000000000000000000000000000000815260040161059c9061117d565b60405180910390fd5b6000841180156105b55750600083115b6105f4576040517f08c379a00000000000000000000000000000000000000000000000000000000081526004016105eb9061120f565b60405180910390fd5b600061061e620186a0610610888861068890919063ffffffff16565b61068890919063ffffffff16565b9050600061065b84620186a0610634919061122f565b63ffffffff1661064d89886106f590919063ffffffff16565b61068890919063ffffffff16565b905061067c6001828461066e9190611292565b61074e90919063ffffffff16565b92505050949350505050565b6000808214806106b05750828283856106a191906112c3565b9250826106ae9190611292565b145b6106ef576040517f08c379a00000000000000000000000000000000000000000000000000000000081526004016106e690611369565b60405180910390fd5b92915050565b60008282846107049190610ecb565b9150811115610748576040517f08c379a000000000000000000000000000000000000000000000000000000000815260040161073f906113d5565b60405180910390fd5b92915050565b600082828461075d91906113f5565b91508110156107a1576040517f08c379a000000000000000000000000000000000000000000000000000000000815260040161079890611497565b60405180910390fd5b92915050565b6000604051905090565b600080fd5b600080fd5b600073ffffffffffffffffffffffffffffffffffffffff82169050919050565b60006107e6826107bb565b9050919050565b6107f6816107db565b811461080157600080fd5b50565b600081359050610813816107ed565b92915050565b600063ffffffff82169050919050565b61083281610819565b811461083d57600080fd5b50565b60008135905061084f81610829565b92915050565b6000806000806080858703121561086f5761086e6107b1565b5b600061087d87828801610804565b945050602061088e87828801610804565b935050604061089f87828801610804565b92505060606108b087828801610840565b91505092959194509250565b6108c5816107db565b82525050565b60006020820190506108e060008301846108bc565b92915050565b6000819050919050565b6108f9816108e6565b811461090457600080fd5b50565b600081359050610916816108f0565b92915050565b600080fd5b6000601f19601f8301169050919050565b7f4e487b7100000000000000000000000000000000000000000000000000000000600052604160045260246000fd5b61096a82610921565b810181811067ffffffffffffffff8211171561098957610988610932565b5b80604052505050565b600061099c6107a7565b90506109a88282610961565b919050565b600067ffffffffffffffff8211156109c8576109c7610932565b5b602082029050602081019050919050565b600080fd5b60006109f16109ec846109ad565b610992565b90508083825260208201905060208402830185811115610a1457610a136109d9565b5b835b81811015610a3d5780610a298882610804565b845260208401935050602081019050610a16565b5050509392505050565b600082601f830112610a5c57610a5b61091c565b5b8135610a6c8482602086016109de565b91505092915050565b600080fd5b60008083601f840112610a9057610a8f61091c565b5b8235905067ffffffffffffffff811115610aad57610aac610a75565b5b602083019150836020820283011115610ac957610ac86109d9565b5b9250929050565b600080600080600060808688031215610aec57610aeb6107b1565b5b6000610afa88828901610804565b9550506020610b0b88828901610907565b945050604086013567ffffffffffffffff811115610b2c57610b2b6107b6565b5b610b3888828901610a47565b935050606086013567ffffffffffffffff811115610b5957610b586107b6565b5b610b6588828901610a7a565b92509250509295509295909350565b600081519050919050565b600082825260208201905092915050565b6000819050602082019050919050565b610ba9816108e6565b82525050565b6000610bbb8383610ba0565b60208301905092915050565b6000602082019050919050565b6000610bdf82610b74565b610be98185610b7f565b9350610bf483610b90565b8060005b83811015610c25578151610c0c8882610baf565b9750610c1783610bc7565b925050600181019050610bf8565b5085935050505092915050565b60006020820190508181036000830152610c4c8184610bd4565b905092915050565b60008160601b9050919050565b6000610c6c82610c54565b9050919050565b6000610c7e82610c61565b9050919050565b610c96610c91826107db565b610c73565b82525050565b60008160e01b9050919050565b6000610cb482610c9c565b9050919050565b610ccc610cc782610819565b610ca9565b82525050565b6000610cde8286610c85565b601482019150610cee8285610c85565b601482019150610cfe8284610cbb565b600482019150819050949350505050565b600081905092915050565b7fff00000000000000000000000000000000000000000000000000000000000000600082015250565b6000610d50600183610d0f565b9150610d5b82610d1a565b600182019050919050565b6000819050919050565b6000819050919050565b610d8b610d8682610d66565b610d70565b82525050565b7f4865ea389995915db67b44b39fd00c73c081158e770991b408389498fb8dc480600082015250565b6000610dc7602083610d0f565b9150610dd282610d91565b602082019050919050565b6000610de882610d43565b9150610df48285610c85565b601482019150610e048284610d7a565b602082019150610e1382610dba565b91508190509392505050565b600082825260208201905092915050565b7f4445584c6962726172793a20494e56414c49445f504154480000000000000000600082015250565b6000610e66601883610e1f565b9150610e7182610e30565b602082019050919050565b60006020820190508181036000830152610e9581610e59565b9050919050565b7f4e487b7100000000000000000000000000000000000000000000000000000000600052601160045260246000fd5b6000610ed6826108e6565b9150610ee1836108e6565b925082821015610ef457610ef3610e9c565b5b828203905092915050565b7f4e487b7100000000000000000000000000000000000000000000000000000000600052603260045260246000fd5b600060208284031215610f4457610f436107b1565b5b6000610f5284828501610840565b91505092915050565b6000610f66826108e6565b91506000821415610f7a57610f79610e9c565b5b600182039050919050565b7f4445584c6962726172793a204944454e544943414c5f41444452455353455300600082015250565b6000610fbb601f83610e1f565b9150610fc682610f85565b602082019050919050565b60006020820190508181036000830152610fea81610fae565b9050919050565b7f4445584c6962726172793a205a45524f5f414444524553530000000000000000600082015250565b6000611027601883610e1f565b915061103282610ff1565b602082019050919050565b600060208201905081810360008301526110568161101a565b9050919050565b60006dffffffffffffffffffffffffffff82169050919050565b6110808161105d565b811461108b57600080fd5b50565b60008151905061109d81611077565b92915050565b6000815190506110b281610829565b92915050565b6000806000606084860312156110d1576110d06107b1565b5b60006110df8682870161108e565b93505060206110f08682870161108e565b9250506040611101868287016110a3565b9150509250925092565b7f4445584c6962726172793a20494e53554646494349454e545f4f55545055545f60008201527f414d4f554e540000000000000000000000000000000000000000000000000000602082015250565b6000611167602683610e1f565b91506111728261110b565b604082019050919050565b600060208201905081810360008301526111968161115a565b9050919050565b7f4445584c6962726172793a20494e53554646494349454e545f4c49515549444960008201527f5459000000000000000000000000000000000000000000000000000000000000602082015250565b60006111f9602283610e1f565b91506112048261119d565b604082019050919050565b60006020820190508181036000830152611228816111ec565b9050919050565b600061123a82610819565b915061124583610819565b92508282101561125857611257610e9c565b5b828203905092915050565b7f4e487b7100000000000000000000000000000000000000000000000000000000600052601260045260246000fd5b600061129d826108e6565b91506112a8836108e6565b9250826112b8576112b7611263565b5b828204905092915050565b60006112ce826108e6565b91506112d9836108e6565b9250817fffffffffffffffffffffffffffffffffffffffffffffffffffffffffffffffff048311821515161561131257611311610e9c565b5b828202905092915050565b7f64732d6d6174682d6d756c2d6f766572666c6f77000000000000000000000000600082015250565b6000611353601483610e1f565b915061135e8261131d565b602082019050919050565b6000602082019050818103600083015261138281611346565b9050919050565b7f64732d6d6174682d7375622d756e646572666c6f770000000000000000000000600082015250565b60006113bf601583610e1f565b91506113ca82611389565b602082019050919050565b600060208201905081810360008301526113ee816113b2565b9050919050565b6000611400826108e6565b915061140b836108e6565b9250827fffffffffffffffffffffffffffffffffffffffffffffffffffffffffffffffff038211156114405761143f610e9c565b5b828201905092915050565b7f64732d6d6174682d6164642d6f766572666c6f77000000000000000000000000600082015250565b6000611481601483610e1f565b915061148c8261144b565b602082019050919050565b600060208201905081810360008301526114b081611474565b905091905056fea26469706673582212202e4d489ef1a5bcc9eb96af63e81d05162042b914d8ea7b415196dc6ddd34a5ac64736f6c63430008090033",
  "linkReferences": {},
  "deployedLinkReferences": {}
}