{
  "_format": "hh-sol-artifact-1",
  "contractName": "ERC20PairToken",
  "sourceName": "contracts/core/ERC20PairToken.sol",
  "abi": [
    {
      "anonymous": false,
      "inputs": [
        {
          "indexed": true,
          "internalType": "address",
          "name": "owner",
          "type": "address"
        },
        {
          "indexed": true,
          "internalType": "address",
          "name": "spender",
          "type": "address"
        },
        {
          "indexed": false,
          "internalType": "uint256",
          "name": "value",
          "type": "uint256"
        }
      ],
      "name": "Approval",
      "type": "event"
    },
    {
      "anonymous": false,
      "inputs": [
        {
          "indexed": true,
          "internalType": "address",
          "name": "from",
          "type": "address"
        },
        {
          "indexed": true,
          "internalType": "address",
          "name": "to",
          "type": "address"
        },
        {
          "indexed": false,
          "internalType": "uint256",
          "name": "value",
          "type": "uint256"
        }
      ],
      "name": "Transfer",
      "type": "event"
    },
    {
      "inputs": [],
      "name": "PERMIT_TYPEHASH",
      "outputs": [
        {
          "internalType": "bytes32",
          "name": "",
          "type": "bytes32"
        }
      ],
      "stateMutability": "view",
      "type": "function"
    },
    {
      "inputs": [
        {
          "internalType": "address",
          "name": "",
          "type": "address"
        },
        {
          "internalType": "address",
          "name": "",
          "type": "address"
        }
      ],
      "name": "allowance",
      "outputs": [
        {
          "internalType": "uint256",
          "name": "",
          "type": "uint256"
        }
      ],
      "stateMutability": "view",
      "type": "function"
    },
    {
      "inputs": [
        {
          "internalType": "address",
          "name": "spender",
          "type": "address"
        },
        {
          "internalType": "uint256",
          "name": "value",
          "type": "uint256"
        }
      ],
      "name": "approve",
      "outputs": [
        {
          "internalType": "bool",
          "name": "",
          "type": "bool"
        }
      ],
      "stateMutability": "nonpayable",
      "type": "function"
    },
    {
      "inputs": [
        {
          "internalType": "address",
          "name": "",
          "type": "address"
        }
      ],
      "name": "balanceOf",
      "outputs": [
        {
          "internalType": "uint256",
          "name": "",
          "type": "uint256"
        }
      ],
      "stateMutability": "view",
      "type": "function"
    },
    {
      "inputs": [],
      "name": "decimals",
      "outputs": [
        {
          "internalType": "uint8",
          "name": "",
          "type": "uint8"
        }
      ],
      "stateMutability": "view",
      "type": "function"
    },
    {
      "inputs": [],
      "name": "name",
      "outputs": [
        {
          "internalType": "string",
          "name": "",
          "type": "string"
        }
      ],
      "stateMutability": "view",
      "type": "function"
    },
    {
      "inputs": [
        {
          "internalType": "address",
          "name": "",
          "type": "address"
        }
      ],
      "name": "nonces",
      "outputs": [
        {
          "internalType": "uint256",
          "name": "",
          "type": "uint256"
        }
      ],
      "stateMutability": "view",
      "type": "function"
    },
    {
      "inputs": [],
      "name": "symbol",
      "outputs": [
        {
          "internalType": "string",
          "name": "",
          "type": "string"
        }
      ],
      "stateMutability": "view",
      "type": "function"
    },
    {
      "inputs": [],
      "name": "totalSupply",
      "outputs": [
        {
          "internalType": "uint256",
          "name": "",
          "type": "uint256"
        }
      ],
      "stateMutability": "view",
      "type": "function"
    },
    {
      "inputs": [
        {
          "internalType": "address",
          "name": "to",
          "type": "address"
        },
        {
          "internalType": "uint256",
          "name": "value",
          "type": "uint256"
        }
      ],
      "name": "transfer",
      "outputs": [
        {
          "internalType": "bool",
          "name": "",
          "type": "bool"
        }
      ],
      "stateMutability": "nonpayable",
      "type": "function"
    },
    {
      "inputs": [
        {
          "internalType": "address",
          "name": "from",
          "type": "address"
        },
        {
          "internalType": "address",
          "name": "to",
          "type": "address"
        },
        {
          "internalType": "uint256",
          "name": "value",
          "type": "uint256"
        }
      ],
      "name": "transferFrom",
      "outputs": [
        {
          "internalType": "bool",
          "name": "",
          "type": "bool"
        }
      ],
      "stateMutability": "nonpayable",
      "type": "function"
    }
  ],
  "bytecode": "0x608060405234801561001057600080fd5b50610bce806100206000396000f3fe608060405234801561001057600080fd5b50600436106100a95760003560e01c8063313ce56711610071578063313ce5671461016857806370a08231146101865780637ecebe00146101b657806395d89b41146101e6578063a9059cbb14610204578063dd62ed3e14610234576100a9565b806306fdde03146100ae578063095ea7b3146100cc57806318160ddd146100fc57806323b872dd1461011a57806330adf81f1461014a575b600080fd5b6100b6610264565b6040516100c39190610859565b60405180910390f35b6100e660048036038101906100e19190610914565b61029d565b6040516100f3919061096f565b60405180910390f35b6101046102b4565b6040516101119190610999565b60405180910390f35b610134600480360381019061012f91906109b4565b6102ba565b604051610141919061096f565b60405180910390f35b61015261047e565b60405161015f9190610a20565b60405180910390f35b6101706104a5565b60405161017d9190610a57565b60405180910390f35b6101a0600480360381019061019b9190610a72565b6104aa565b6040516101ad9190610999565b60405180910390f35b6101d060048036038101906101cb9190610a72565b6104c2565b6040516101dd9190610999565b60405180910390f35b6101ee6104da565b6040516101fb9190610859565b60405180910390f35b61021e60048036038101906102199190610914565b610513565b60405161022b919061096f565b60405180910390f35b61024e60048036038101906102499190610a9f565b61052a565b60405161025b9190610999565b60405180910390f35b6040518060400160405280601081526020017f4552433230205061697220546f6b656e0000000000000000000000000000000081525081565b60006102aa33848461054f565b6001905092915050565b60005481565b60007fffffffffffffffffffffffffffffffffffffffffffffffffffffffffffffffff600260008673ffffffffffffffffffffffffffffffffffffffff1673ffffffffffffffffffffffffffffffffffffffff16815260200190815260200160002060003373ffffffffffffffffffffffffffffffffffffffff1673ffffffffffffffffffffffffffffffffffffffff16815260200190815260200160002054146104685781600260008673ffffffffffffffffffffffffffffffffffffffff1673ffffffffffffffffffffffffffffffffffffffff16815260200190815260200160002060003373ffffffffffffffffffffffffffffffffffffffff1673ffffffffffffffffffffffffffffffffffffffff168152602001908152602001600020546103e79190610b0e565b600260008673ffffffffffffffffffffffffffffffffffffffff1673ffffffffffffffffffffffffffffffffffffffff16815260200190815260200160002060003373ffffffffffffffffffffffffffffffffffffffff1673ffffffffffffffffffffffffffffffffffffffff168152602001908152602001600020819055505b61047384848461063a565b600190509392505050565b7f6e71edae12b1b97f4d1f60370fef10105fa2faae0126114a169c64845d6126c960001b81565b601281565b60016020528060005260406000206000915090505481565b60036020528060005260406000206000915090505481565b6040518060400160405280600581526020017f4c50544b4e00000000000000000000000000000000000000000000000000000081525081565b600061052033848461063a565b6001905092915050565b6002602052816000526040600020602052806000526040600020600091509150505481565b80600260008573ffffffffffffffffffffffffffffffffffffffff1673ffffffffffffffffffffffffffffffffffffffff16815260200190815260200160002060008473ffffffffffffffffffffffffffffffffffffffff1673ffffffffffffffffffffffffffffffffffffffff168152602001908152602001600020819055508173ffffffffffffffffffffffffffffffffffffffff168373ffffffffffffffffffffffffffffffffffffffff167f8c5be1e5ebec7d5bd14f71427d1e84f3dd0314c0f7b2291e5b200ac8c7c3b9258360405161062d9190610999565b60405180910390a3505050565b80600160008573ffffffffffffffffffffffffffffffffffffffff1673ffffffffffffffffffffffffffffffffffffffff168152602001908152602001600020546106859190610b0e565b600160008573ffffffffffffffffffffffffffffffffffffffff1673ffffffffffffffffffffffffffffffffffffffff1681526020019081526020016000208190555080600160008473ffffffffffffffffffffffffffffffffffffffff1673ffffffffffffffffffffffffffffffffffffffff168152602001908152602001600020546107139190610b42565b600160008473ffffffffffffffffffffffffffffffffffffffff1673ffffffffffffffffffffffffffffffffffffffff168152602001908152602001600020819055508173ffffffffffffffffffffffffffffffffffffffff168373ffffffffffffffffffffffffffffffffffffffff167fddf252ad1be2c89b69c2b068fc378daa952ba7f163c4a11628f55a4df523b3ef836040516107b39190610999565b60405180910390a3505050565b600081519050919050565b600082825260208201905092915050565b60005b838110156107fa5780820151818401526020810190506107df565b83811115610809576000848401525b50505050565b6000601f19601f8301169050919050565b600061082b826107c0565b61083581856107cb565b93506108458185602086016107dc565b61084e8161080f565b840191505092915050565b600060208201905081810360008301526108738184610820565b905092915050565b600080fd5b600073ffffffffffffffffffffffffffffffffffffffff82169050919050565b60006108ab82610880565b9050919050565b6108bb816108a0565b81146108c657600080fd5b50565b6000813590506108d8816108b2565b92915050565b6000819050919050565b6108f1816108de565b81146108fc57600080fd5b50565b60008135905061090e816108e8565b92915050565b6000806040838503121561092b5761092a61087b565b5b6000610939858286016108c9565b925050602061094a858286016108ff565b9150509250929050565b60008115159050919050565b61096981610954565b82525050565b60006020820190506109846000830184610960565b92915050565b610993816108de565b82525050565b60006020820190506109ae600083018461098a565b92915050565b6000806000606084860312156109cd576109cc61087b565b5b60006109db868287016108c9565b93505060206109ec868287016108c9565b92505060406109fd868287016108ff565b9150509250925092565b6000819050919050565b610a1a81610a07565b82525050565b6000602082019050610a356000830184610a11565b92915050565b600060ff82169050919050565b610a5181610a3b565b82525050565b6000602082019050610a6c6000830184610a48565b92915050565b600060208284031215610a8857610a8761087b565b5b6000610a96848285016108c9565b91505092915050565b60008060408385031215610ab657610ab561087b565b5b6000610ac4858286016108c9565b9250506020610ad5858286016108c9565b9150509250929050565b7f4e487b7100000000000000000000000000000000000000000000000000000000600052601160045260246000fd5b6000610b19826108de565b9150610b24836108de565b925082821015610b3757610b36610adf565b5b828203905092915050565b6000610b4d826108de565b9150610b58836108de565b9250827fffffffffffffffffffffffffffffffffffffffffffffffffffffffffffffffff03821115610b8d57610b8c610adf565b5b82820190509291505056fea264697066735822122052e867b223ea69c50f0461e32133102d6dc9d836eb74748eced2cfa61fda4e4564736f6c63430008090033",
  "linkReferences": {},
  "deployedLinkReferences": {}
}